S01900005044555F563130305F6669726D776172652E7372656320
S11300000C9438040C9455040C9455040C94550425
S11300100C9455040C9455040C9455040C945504F8
S11300200C9455040C9455040C9455040C945504E8
S11300300C9455040C9455040C9455040C944E11D2
S11300400C9455040C9455040C944A090C94960988
S11300500C9455040C94DB040C9455040C94550432
S11300600C9455040C9455040C9455040C945504A8
S11300700C9455040C9455040C94CF090C941E0A4A
S11300800C9455040C9455040C9455041F0D240D24
S1130090240D240D240D240D240D240D240D240DD4
S11300A0240DC20AC20AC20AC20AC20AC20AC20A87
S11300B0C20AC20AC20A240D240D240D240D240DE3
S11300C0240D240D240D240D240D240D240D240DA4
S11300D0240D240D240D240D240D240D240D240D94
S11300E0240D240D240D240D240D240D240D240D84
S11300F0240DCC0B240D240D240D240D240D240DCE
S1130100240D240D240D240DFE0A120B240D240DA0
S1130110240D240D120B240D240D240D240D240D67
S1130120240DCC0B240D240D4E0B240DAF0B240DEC
S1130130240DCC0B6E616E00696E660000407A106F
S1130140F35A00A0724E18090010A5D4E80000E884
S11301507648170000E40B54020000CA9A3B0000E2
S113016000E1F505000080969800000040420F0071
S11301700000A08601000000102700000000E80332
S1130180000000006400000000000A0000000000FD
S11301900100000000002C76D888DC674F0823DFBC
S11301A0C1DFAE59E1B1B796E5E3E453C63AE6518F
S11301B0997696E8E6C28426EB898C9B62ED407CB6
S11301C06FFCEFBC9C9F40F2BAA56FA5F490055A52
S11301D02AF75C936B6CF9676DC11BFCE0E40D4777
S11301E0FEF520E6B500D0ED902E0300943577059A
S11301F00080841E080000204E0A000000C80C3352
S11302003333330F986E12831141EF8D2114893BE0
S1130210E65516CFFEE6DB18D1844B381BF77C1D60
S1130220901DA4BBE424203284725E228100C9F1B3
S113023024ECA1E53D27544543315F4255434B002F
S11302400000544543325F4255434B00000054457F
S113025043335F4255434B000000544543345F42EF
S113026055434B0000004D43555F4255434B20001E
S113027000004C45445F4255434B20000000434D71
S1130280345F4255434B2000000054454331202045
S1130290202020000000544543322020202020004C
S11302A00000544543332020202020000000544502
S11302B04334202020202000000043504F432020BE
S11302C0202020000000494F55202020202020001D
S11302D000004C45445F52474220200000004C453A
S11302E0445F4952202020000000434D3420202048
S11302F0202020000000524144494F2020202000AB
S113030000005355504552434150200000005642CE
S1130310555320202020200000000D0A000000007A
S113032000000000000000000000000000000000C9
S113033000000000000000000000000000000000B9
S113034000000000000000000000000000000000A9
S113035000000000000000000000002E2E2E2E2EB3
S11303602E2E2E2E2E2E2E2E2E2E2E2E2E2E2E2EA9
S11303702E2E2E2E2E2E2E2E2E2E2E2E2E2E2E2E99
S11303802E2E2E2E2E2E2E2E2E2E2E2E2E2E2E2E89
S11303902E2E0D0A00000000000000002E2E2E2E2E
S11303A02E2E2E2E2E2E2E2E2E2E2E2E2E2E2E2E69
S11303B02E2E2E2E2E2E2E2E2E2E2E2E2E2E2E2E59
S11303C02E2E2E2E2E2E2E2E2E2E2E2E2E2E2E2E49
S11303D02E2E2E0D0A00000000000000002E2E20FC
S11303E0202020205F5F5F5F20202020202020200D
S11303F02020202020202020202020202020205FBA
S113040020202020205F205F20202020202020206A
S113041020202E2E0D0A00000000000000002E2EC9
S1130420202020202F205F5F5F7C205F205F5F20E3
S113043020205F5F205F20205F5F5F205F5F5F7C25
S1130440207C202020285F7C5F295F205F5F5F2065
S11304502020202E2E0D0A00000000000000002E97
S11304602E202020205C5F5F5F205C7C20275F20A3
S11304705C202F205F60207C2F205F5F2F205F2077
S11304805C207C2020207C207C207C20275F202076
S11304905C2020202E2E0D0A000000000000000029
S11304A02E2E20202020205F5F5F29207C207C5F6F
S11304B029207C20285F7C207C20285F7C20205FF2
S11304C05F2F207C5F5F5F7C207C207C207C207CF5
S11304D0207C2020202E2E0D0A00000000000000A9
S11304E0002E2E202020207C5F5F5F5F2F7C202E3B
S11304F05F5F2F205C5F5F2C5F7C5C5F5F5F5C5F96
S11305005F5F7C5F5F5F5F5F7C5F7C5F7C5F7C20A5
S11305107C5F7C2020202E2E0D0A000000000000AD
S113052000002E2E202020202020202020207C5F50
S11305307C202020205F5F5F5F20205F5F5F5F2063
S1130540205F2020205F2020202020202020202029
S1130550202020202020202E2E0D0A000000000044
S11305600000002E2E2020202020202020202020CB
S113057020202020207C20205F205C7C20205F2005
S11305805C7C207C207C207C2020202020202020BB
S113059020202020202020202E2E0D0A00000000E4
S11305A0000000002E2E20202020202020202020AB
S11305B02020202020207C207C5F29207C207C207F
S11305C07C207C207C207C207C202020202020205B
S11305D02020202020202020202E2E0D0A00000084
S11305E000000000002E2E2020202020202020208B
S11305F0202020202020207C20205F5F2F7C207C56
S11306005F7C207C207C5F7C207C2020202020209C
S1130610202020202020202020202E2E0D0A000023
S11306200000000000002E2E20202020202020206A
S113063020202020202020207C5F7C2020207C5F24
S11306405F5F5F2F205C5F5F5F2F202020202020D2
S113065020202020202020202020202E2E0D0A00C3
S1130660000000000000002E2E202020202020204A
S1130670202020202020205F5F20202020205F5F7A
S11306805F2020205F5F5F2020205F5F5F202020AD
S11306902020202020202020202020202E2E0D0A63
S11306A000000000000000002E2E2020202020202A
S11306B020202020202020205C205C2020202F20AF
S11306C02F207C202F205F205C202F205F205C20A7
S11306D0202020202020202020202020202E2E0D0D
S11306E00A00000000000000002E2E202020202000
S11306F0202020202020202020205C205C202F206F
S11307002F7C207C7C207C207C207C207C207C20F6
S11307107C202020202020202020202020202E2E5D
S11307200D0A00000000000000002E2E20202020D2
S11307302020202020202020202020205C20562043
S11307402F207C207C7C207C5F7C207C207C5F7C38
S1130750207C202020202020202020202020202E2B
S11307602E0D0A00000000000000002E2E20202084
S113077020202020202020202020202020205C5FFA
S11307802F20207C5F285F295F5F5F285F295F5FE0
S11307905F2F202020202020202020202020202007
S11307A02E2E0D0A00000000000000002E2E202036
S11307B02020202020202020202020202020202035
S11307C02020202020202020202020202020202025
S11307D02020202020202020202020202020202015
S11307E0202E2E0D0A00000000000000002E2E2EE8
S11307F02E2E2E2E2E2E2E2E2E2E2E2E2E2E2E2E15
S11308002E2E2E2E2E2E2E2E2E2E2E2E2E2E2E2E04
S11308102E2E2E2E2E2E2E2E2E2E2E2E2E2E2E2EF4
S11308202E2E2E2E0D0A00000000000000002E2E99
S11308302E2E2E2E2E2E2E2E2E2E2E2E2E2E2E2ED4
S11308402E2E2E2E2E2E2E2E2E2E2E2E2E2E2E2EC4
S11308502E2E2E2E2E2E2E2E2E2E2E2E2E2E2E2EB4
S11308602E2E2E2E2E0D0A00000000000000000087
S113087011241FBECFEFD0E1DEBFCDBF13E0A0E057
S1130880B1E0E6E3F2E302C005900D92AC3FB1079C
S1130890D9F728E0ACEFB3E001C01D92A439B20748
S11308A0E1F70E947E060C9419190C94000084311F
S11308B048F4E82FF0E07396EE0FFF1FEC50FA4F68
S11308C072A761A70895F89487E886B983E087B989
S11308D086B1886086B982E08093F40580E006C022
S11308E0E82FF0E0EC50FA4F11828F5F8331C0F3B0
S11308F061E173E080E00E9457046FE573E081E0FA
S11309000E94570461E173E082E00E9457046FE59E
S113091073E083E00E9457046FE573E084E00E9473
S1130920570461E173E085E00E9457046FE573E0CA
S113093086E00E94570461E173E087E00E94570457
S11309406FE571E088E00E9457046FE571E089E08B
S11309500E94570461E173E08AE00E9457046FE546
S113096071E08BE00E9457046FE571E08CE00E9417
S1130970570461E173E08DE00E94570461E173E084
S11309808EE00E9457046FE571E08FE00E945704E7
S113099060E273E080E10E9457046CE571E081E15C
S11309A00E94570460EA71E082E10E9457040E94A9
S11309B06005789408951F920F920FB60F92112438
S11309C00F931F932F933F934F935F936F937F9353
S11309D08F939F93AF93BF93CF93EF93FF93C09164
S11309E008060C2F10E0F8017396EE0FFF1FEC5071
S11309F0FA4F21A532A584B195B12817390788F497
S1130A00F801EC50FA4F86898F5F868B86898B308C
S1130A1070F08C2F0E940308F801EC50FA4F168AEC
S1130A2006C081E0F801EC50FA4F8183168A84B144
S1130A3095B1000F111FF801EC50FA4F92A781A74E
S1130A40CF5FC0936906C33150F083E087B980E07B
S1130A500E94830585E08093F405C0E018C0C0318E
S1130A6030F48C2F0E94830583E087B90DC0C03118
S1130A7011F417B809C0C13119F481E087B904C071
S1130A80C23111F482E087B982E08093F405E4EF87
S1130A90F5E0C48B83E0858BFF91EF91CF91BF91FB
S1130AA0AF919F918F917F916F915F914F913F9102
S1130AB02F911F910F910F900FBE0F901F901895BB
S1130AC082B1846082B982B1886082B982B1806265
S1130AD082B982B1806182B9E1E6F0E08081877FEA
S1130AE0808383B18B7F83B983B1877F83B983B1DB
S1130AF08F7D83B983B18F7E83B9E2E6F0E0808194
S1130B00877F8083089580FF04C093B1946093B974
S1130B1003C093B19B7F93B981FF04C093B19860E4
S1130B2093B903C093B1977F93B982FF04C093B183
S1130B30906293B903C093B19F7D93B983FF04C0BE
S1130B4083B1806183B9089583B18F7E83B9089599
S1130B500AC08091FB049091FC040E949A086CEFF7
S1130B6073E00E94AF118091FB049091FC040E94F9
S1130B707608882371F308950E94B70882E00E94E2
S1130B80AA110E94D3089093FC048093FB04089557
S1130B900E94BC0561E071E080E091E00E94EB0FEF
S1130BA0089582B3806482BB089582B38F7B82BB35
S1130BB0089582B3806882BB089582B38F7782BB25
S1130BC008958091FD04982F917080FF16C080E0F5
S1130BD00E94DE0F8823C9F18091FD048E7F8093EB
S1130BE0FD040E94D1050E94D90548EE53E060E05F
S1130BF070E080E00E94D30F0895911116C080E048
S1130C000E94DE0F882309F18091FD0481608093A6
S1130C10FD040E94D5050E94DD0548EE53E060E026
S1130C2070E080E00E94D30F08958091FD048E7FD0
S1130C308093FD040E94D1050E94D90548EE53E03B
S1130C4060E070E080E00E94D30F08958091FD047D
S1130C50982F917080FF14C080E00E94DE0F8823DB
S1130C6021F18091FD048E7F8093FD040E94D105C3
S1130C7048EB5BE060E070E080E00E94D30F0895F1
S1130C80992399F080E00E94DE0F882371F080910F
S1130C90FD0481608093FD040E94D50544EF51E07A
S1130CA060E070E080E00E94D30F08958091FD041D
S1130CB08695869519F0813021F008950E94E1050A
S1130CC008950E942606089581B3806481BB82B38F
S1130CD08F7B82BB81B3806881BB82B38F7782BBF9
S1130CE01092FD040E94D1050E94D905089568E080
S1130CF071E087E091E00E94EB0F08950E94640682
S1130D000E94B7080E94B30F0E9477060E94BC0598
S1130D100E94C8050E94970F0E947D0F0E94380808
S1130D200E94E4100E9463040E9454070E94E7108A
S1130D308091F405853019F482E08093F405809164
S1130D40FE04882399F38DEA91E09F938F930E9488
S1130D50440D1092FE040F900F90E8CF8BB3816086
S1130D608BBB08958BB38E7F8BBB08958BB3886048
S1130D708BBB08958BB3877F8BBB08958BB3806245
S1130D808BBB08958BB38F7D8BBB0895E5E6F0E0B4
S1130D908081846080830895E5E6F0E080818B7F24
S1130DA08083089585B3806185BB089585B38F7E64
S1130DB085BB089585B3816085BB089585B38E7F17
S1130DC085BB089585B3886085BB089585B3877F07
S1130DD085BB08958BB382608BBB08958BB38D7FE5
S1130DE08BBB08958BB384608BBB08958BB38B7FCF
S1130DF08BBB08958BB380618BBB08958BB38F7EBF
S1130E008BBB08958BB380648BBB08958BB38F7BAE
S1130E108BBB089585B3806485BB089585B38F7BB0
S1130E2085BB089585B3806285BB089585B38F7DA6
S1130E3085BB08958BB380688BBB08958BB38F7784
S1130E408BBB089585B3806885BB089585B38F7780
S1130E5085BB0895E5E6F0E0808181608083089594
S1130E60E5E6F0E080818E7F80830895E5E6F0E09A
S1130E708081826080830895E5E6F0E080818D7F43
S1130E808083089588B3806888BB089588B38F777A
S1130E9088BB089580EC91E00E941209089580EDCA
S1130EA091E00E941209089588B38F7B88BB88B3B0
S1130EB08F7788BB87B3806487BB87B3806887BB21
S1130EC08BB38E7F8BBB8BB3877F8BBB8BB38F7DB9
S1130ED08BBBE5E6F0E080818B7F808385B38F7EDA
S1130EE085BB85B38E7F85BB85B3877F85BB8BB37D
S1130EF08D7F8BBB8BB38B7F8BBB8BB38F7E8BBB7D
S1130F008BB38F7B8BBB85B38F7B85BB85B38F7D89
S1130F1085BB8BB38F778BBB85B38F7785BB808184
S1130F208D7F808380818E7F80838AB381608ABB3A
S1130F308AB388608ABB8AB380628ABBE4E6F0E045
S1130F4080818460808384B3806184BB84B3816046
S1130F5084BB84B3886084BB8AB382608ABB8AB34F
S1130F6084608ABB8AB380618ABB8AB380648ABB8B
S1130F7084B3806484BB84B3806284BB8AB3806896
S1130F808ABB84B3806884BB8081826080838081D3
S1130F908160808380E006C0E82FF0E0E659F94FD5
S1130FA010828F5F8331C0F30895833150F5662337
S1130FB059F0E82FF0E0EA5FFD4FE081F0E0E659F8
S1130FC0F94F94E0908309C0E82FF0E0EA5FFD4F09
S1130FD0E081F0E0E659F94F1082E82FF0E0EA5F93
S1130FE0FD4FE081F0E0EE0FFF1FE60FF11DEE0F65
S1130FF0FF1FE25FFE4F0190F081E02D099581E033
S1131000089580E00895833148F490E0FC01E656A9
S1131010FE4F2081FC01E659F94F20830895809109
S1131020FF04882391F081E00E94DE0F8823F9F009
S11310301092FF0483B18F7B83B948EE53E060E0E4
S113104070E081E00E94D30F089581E00E94DE0FDA
S1131050882369F081E08093FF0483B1806483B9BD
S113106048EC50E060E070E081E00E94D30F089506
S113107082B1806482B982B18F7782B983B180648E
S113108083B983B18F7783B91092FF046BE571E064
S11310908AE591E00E94EB0F089583B7846083BFD3
S11310A087B7826087BF7894089583B7886083BFC9
S11310B012BE8CE781BF08953FB7F89421E009C0C0
S11310C0FC01E058FF4F1082319610823196108255
S11310D020E02111F5CF3FBF08958E579F4FFC01AB
S11310E0908181E0903809F080E008958E579F4FF9
S11310F0FC01908181E0911180E00895FB01E058AA
S1131100FF4F9081FB01E90FF11D80839FB7F89495
S113111081E00CC0FB01E058FF4F80818F5F8F7727
S11311208083329680818F5F808380E08111F2CF4B
S11311309FBF08959C01FC01EF57FF4F8081F90187
S1131140E80FF11D80814FB7F89491E00CC0F901CC
S1131150EF57FF4F90819F5F9F77908331969081E7
S11311609150908390E09111F2CF4FBF08958091F8
S11311706301909164018D579F4F0E945C08809198
S11311806301909164010E945C081092900083E3D3
S113119089B98AB188698AB9E5E9F0E08081866015
S11311A080837894089580916301909164010895F7
S11311B080916101909162018D579F4F0E945C085C
S11311C080916101909162010E945C0810929800E4
S11311D083E380939900EAE9F0E080818869808361
S11311E0EDE9F0E08081866080830895CF93C82F75
S11311F080916101909162018D579F4F0E946D080B
S11312008111F6CF60916101709162016D577F4F3A
S11312108C2F0E947E08EAE9F0E08081806280835E
S1131220CF910895CF93DF93EC0103C021960E94E0
S1131230F60888818111FACFDF91CF9108950F9339
S11312401F93CF93DF93FC01D62FC0E008C08F011A
S11312500F5F1F4F80810E94F608CF5FF801CD1702
S1131260B0F3DF91CF911F910F910895CF93DF9346
S1131270FC0103C00E94F608FE01EF01219684914F
S11312808111F8CFDF91CF91089580916101909100
S1131290620108951F920F920FB60F9211242F939B
S11312A03F934F935F936F937F938F939F93AF93EA
S11312B0BF93CF93EF93FF93CCB18091630190914F
S11312C064010E946D08811113C0609163017091E3
S11312D064018C2F0E947E08E0916301F091640107
S11312E08BB18C7190E0EA5FFE4F918380830CC0D8
S11312F0E0916301F09164018BB18C71816090E0A5
S1131300EA5FFE4F91838083FF91EF91CF91BF916C
S1131310AF919F918F917F916F915F914F913F9189
S11313202F910F900FBE0F901F9018951F920F9240
S11313300FB60F9211242F933F934F935F936F93A4
S11313407F938F939F93AF93BF93EF93FF9380917A
S11313506301909164018D579F4F0E94760881111B
S11313600AC080916301909164018D579F4F0E9440
S11313709A088CB903C08AB18F7D8AB9FF91EF9125
S1131380BF91AF919F918F917F916F915F914F9199
S11313903F912F910F900FBE0F901F9018951F92A1
S11313A00F920FB60F9211242F933F934F935F9395
S11313B06F937F938F939F93AF93BF93CF93EF9349
S11313C0FF93C0919C0080916101909162010E9401
S11313D06D08811114C060916101709162018C2FBC
S11313E00E947E08E0916101F091620180919B006E
S11313F08C7190E0EA5FFE4F918380830DC0E09191
S11314006101F091620180919B008C7190E0916088
S1131410EA5FFE4F91838083FF91EF91CF91BF915B
S1131420AF919F918F917F916F915F914F913F9178
S11314302F910F900FBE0F901F9018951F920F922F
S11314400FB60F9211242F933F934F935F936F9393
S11314507F938F939F93AF93BF93EF93FF93809169
S11314606101909162018D579F4F0E94760881110E
S11314700BC080916101909162018D579F4F0E9432
S11314809A0880939C0005C0EAE9F0E080818F7D92
S11314908083FF91EF91BF91AF919F918F917F9145
S11314A06F915F914F913F912F910F900FBE0F90CD
S11314B01F9018954F925F926F927F928F929F9296
S11314C0AF92BF92EF92FF920F931F93CF93DF934C
S11314D0CDB7DEB7A8970FB6F894DEBF0FBECDBF69
S11314E08C017B01B8C219821A821B821C820BC038
S11314F089819A81AB81BC810196A11DB11D89832B
S11315009A83AB83BC8389819A81AB81BC81F801C6
S1131510E80FF91F8081853251F089819A81AB816E
S1131520BC81F801E80FF91F80818111E1CF698145
S11315307A818B819C81C8010E941F0989819A81CB
S1131540AB81BC81080F191FF8018081853209F035
S113155082C2D80111961D861E861F86188A689439
S1131560BB24B5F88D010F5F1F4F8C91482F50E0BD
S1131570FA01B597E435F10508F066C2EA5BFF4F5E
S11315800C94E916803361F44D855E856F85788906
S1131590452B462B472B21F40F2EF0E3BF2EF02DC5
S11315A04D855E856F857889440F551F661F771FAB
S11315B02A013B01440C551C661C771C440C551C29
S11315C0661C771C440D551D661D771D4D875E876F
S11315D06F87788B90E0C0974D855E856F8578899D
S11315E0092E000CAA0BBB0B840F951FA61FB71F57
S11315F08D879E87AF87B88BD801B4CF5701F4E0AD
S1131600AF0EB11CF70180819181A281B3818D83DA
S11316109E83AF83B88761E0CE0105960E941F09BF
S1131620750119C297012E5F3F4FF70180819181A7
S1131630A0E0B0E08D839E83AF83B88719861A86B5
S11316401B861C868D819E81AF81B885BB23C4F423
S11316508D819E81AF81B885B095A0959095819537
S11316609F4FAF4FBF4F8D839E83AF83B88781E079
S113167090E0A0E0B0E08D8B9E8BAF8BB88F04C060
S11316801D8A1E8A1F8A188E8AE090E0A0E0B0E0CE
S1131690898B9A8BAB8BBC8B79019AC05701F2E092
S11316A0AF0EB11CF7018081918119821A821B82CD
S11316B01C820CC049815A816B817C814F5F5F4FD2
S11316C06F4F7F4F49835A836B837C8349815A814F
S11316D06B817C81FC01E40FF51F20812111EACF8D
S11316E049815A816B817C81642F0E941F094D8539
S11316F05E856F85788989819A81AB81BC818417E5
S11317009507A607B70708F0A5C149815A816B81DF
S11317107C818D859E85AF85B889841B950BA60B2E
S1131720B70B8D879E87AF87B88B05C061E087E6CE
S113173092E00E941F098D859E85AF85B889AC0112
S1131740BD0141505109610971094D875E876F8759
S1131750788B892B8A2B8B2B49F775017CC1F70178
S113176080819181A0E0B0E08D839E83AF83B887B0
S113177019861A861B861C868AE090E0A0E0B0E0F9
S1131780898B9A8BAB8BBC8B1D8A1E8A1F8A188E01
S1131790C70102967C011CC0F70180819181A0E001
S11317A0B0E08D839E83AF83B88719861A861B8623
S11317B01C8680E190E0A0E0B0E0898B9A8BAB8B33
S11317C0BC8B1D8A1E8A1F8A188EC70102967C0153
S11317D081E090E0A0E0B0E089839A83AB83BC838E
S11317E019C029893A894B895C8969817A818B81FD
S11317F09C810E94B71669837A838B839C838D8531
S11318009E85AF85B8890197A109B1098D879E8707
S1131810AF87B88B29813A814B815C8169897A8948
S11318208B899C890E94B7164D805E806F80788476
S11318304616570668067906D0F029813A814B810D
S11318405C8169897A898B899C890E94B716298968
S11318503A894B895C890E94C71689819A81AB8138
S1131860BC81281739074A075B0709F4BACF8D8969
S11318709E89AF89B88D892B8A2B8B2B59F08D8546
S11318809E85AF85B8890197A109B1098D879E8787
S1131890AF87B88B8D899E89AF89B88D892B8A2BA8
S11318A08B2BE9F090E3B9121AC089859A85AB8530
S11318B0BC85AC01BD014F5F5F4F6F4F7F4F4987C0
S11318C05A876B877C87E9E1F0E0EC0FFD1FE80F96
S11318D0F91F2DE220831D8A1E8A1F8A188E8D858A
S11318E09E85AF85B8890297A105B105E0F18D8584
S11318F09E85AF85B8894097A105B105A0F58D8572
S11319009E85AF85B8890197A109B1098D879E8706
S1131910AF87B88B20C089859A85AB85BC85AC011F
S1131920BD014F5F5F4F6F4F7F4F49875A876B876A
S11319307C87E9E1F0E0EC0FFD1FE80FF91FB082AE
S11319408D859E85AF85B8890197A109B1098D87D9
S11319509E87AF87B88B8D859E85AF85B889892B87
S11319608A2B8B2BC1F68D899E89AF89B88D892BE3
S11319708A2B8B2B09F451C089859A85AB85BC854C
S1131980AC01BD014F5F5F4F6F4F7F4F49875A874F
S11319906B877C87E9E1F0E0EC0FFD1FE80FF91F8E
S11319A02DE220833AC089849A84AB84BC84D50117
S11319B0C4010196A11DB11D89879A87AB87BC8795
S11319C06D817E818F81988529813A814B815C81EB
S11319D00E94C71649885A886B887C88CA01B90155
S11319E0A30192010E94C716FB01ED5DFD4F8081AA
S11319F0E9E1F0E0EC0FFD1FE80DF91D8083298972
S1131A003A894B895C8969817A818B819C810E94A6
S1131A10C71629833A834B835C8389819A81AB817E
S1131A20BC81892B8A2B8B2B09F0BDCF69857A85E4
S1131A308B859C85CE0149960E941F090CC061E0EC
S1131A40CD010E941F0907C065E084E392E00E9473
S1131A501F0901C07501F8018081811144CDA89648
S1131A600FB6F894DEBF0FBECDBFDF91CF911F91AB
S1131A700F91FF90EF90BF90AF909F908F907F90C9
S1131A806F905F904F900895CF93DF93CDB7DEB7FB
S1131A90BE016B5F7F4FFB0181919191BF010E9459
S1131AA05A0ADF91CF9108950F931F93CF93FC01AE
S1131AB091E0C0E014C0803219F4108291E00EC0AD
S1131AC0992361F0C83090F5AC2FB0E0AA0FBB1F8A
S1131AD0A050BB4FED93FC93CF5F90E03196808193
S1131AE08111E9CFC11118C081E021C080910005A6
S1131AF0909101050E944118892B59F4D80112963E
S1131B00ED91FC91139760E075E08C2F90E00995BE
S1131B100EC00A5F1F4F02C00CE611E0F80160819D
S1131B2071816115710511F781E001C082E0CF91E7
S1131B301F910F910895CF93DF938AE392E00E945F
S1131B40120980E592E00E941209CCE6D1E00BC0B4
S1131B500E9412098C819D810E94120989E892E0F9
S1131B600E941209269688819981009789F780E05E
S1131B7090E0DF91CF910895FF920F931F93CF933D
S1131B80DF93CDB7DEB72A970FB6F894DEBF0FBE4A
S1131B90CDBF02970CF0CBC089E892E00E941209F5
S1131BA0F12CBEC00F2D10E0C801880F991F800FC3
S1131BB0911F880F991F880F991F8A5C9D4F0E945F
S1131BC0360985E692E00E941209F801EA5FFD4FAA
S1131BD0008110E0F801E659F94FE081F0E0EE0FE2
S1131BE0FF1FE75EFD4F808191810E941209000F63
S1131BF0111FF801EC50FA4F61A572A580E090E046
S1131C000E943F1260931605709317058093180580
S1131C109093190507E714EF2FE33BE300931205B4
S1131C2010931305209314053093150525E02F1503
S1131C3078F023E333E343ED5BE30E947C1260938B
S1131C40160570931705809318059093190538C0ED
S1131C5026E0F2120FC023E333E341E15DE30E9487
S1131C607C12609316057093170580931805909362
S1131C70190526C020E12F1578F027E734EF4FE34C
S1131C805BE30E947C1260931605709317058093A2
S1131C9018059093190514C021E1F21689F022E188
S1131CA0F2120EC023E333E341E15DE30E947C12B0
S1131CB06093160570931705809318059093190582
S1131CC089EF8F0D8A3018F481E4888702C086E595
S1131CD08887809119058F93809118058F9380913F
S1131CE017058F93809116058F9389E692E09F9351
S1131CF08F938E010F5F1F4F1F930F930E949918AC
S1131D00C8010E94120988850E94F60889E892E0B9
S1131D100E941209F3940FB6F894DEBF0FBECDBF34
S1131D2092E19F1508F03ECF80E090E002C082E08F
S1131D3090E02A960FB6F894DEBF0FBECDBFDF91B8
S1131D40CF911F910F91FF9008951F93CF93DF932D
S1131D5083309105C4F00497CCF4EB018A819B8114
S1131D600E944017182F8C819D810E9440171A30C1
S1131D7080F4823088F4682F87E0810F0E94D507B1
S1131D8080E090E00BC083E090E008C082E090E047
S1131D9005C084E090E002C084E090E0DF91CF9140
S1131DA01F9108951F93CF93DF9383309105BCF067
S1131DB00497C4F4EB018A819B810E944017182F79
S1131DC08C819D810E944017173078F4823080F412
S1131DD0682F812F0E94D50780E090E00BC083E03C
S1131DE090E008C082E090E005C084E090E002C08A
S1131DF084E090E0DF91CF911F910895CF93DF931A
S1131E0082309105B4F00397BCF4FB018281938185
S1131E100E944017D82F823090F4C0E005C06D2F87
S1131E208C2F0E94D507CF5FC131C8F380E090E0CA
S1131E3008C083E090E005C082E090E002C084E046
S1131E4090E0DF91CF910895CF934CC080919B0592
S1131E5090919C050E949A08C82F0E94F608CD30E4
S1131E6011F0CA3029F580911A058823E1F0E82F92
S1131E70F0E0E55EFA4F10828F5F80931A058BE1E4
S1131E8095E00E94540D10921A05880F990BFC01DD
S1131E90E057FE4F808191810E94120982E792E00F
S1131EA00E9412091FC080E792E00E9412091AC022
S1131EB0C83011F0CF3741F480911A05882391F08E
S1131EC0815080931A050EC080911A05E82FF0E026
S1131ED0E55EFA4FC0838F5F80931A05813810F056
S1131EE010921A0580919B0590919C050E9476089A
S1131EF0882309F4ABCFCF91089566E671E085E6B7
S1131F0091E00E94EB0F0895CF93C0E009C021E453
S1131F10C29FC0011124865E9C4F0E943609CF5F88
S1131F20C531A8F38EE30E94F608CF9108950E946C
S1131F30D8080E94450990939C0580939B0580E8EE
S1131F40EBE1F5E0DF011D928A95E9F710921A059D
S1131F5085E792E00E9412098CE892E00E9412093F
S1131F600E94840F089510928E0810928D0810928A
S1131F70C80510929D058AE2E9ECF5E0DF01982F8F
S1131F801D929A95E9F7EEE9F5E0DF011D928A9535
S1131F90E9F788E0EFE8F8E0DF011D928A95E9F7B8
S1131FA00E9455080895823040F4E82FF0E0EE0FC7
S1131FB0FF1FE157F74F518340830895E82FF0E066
S1131FC0EE0FFF1FE157F74F2081318181E0232B72
S1131FD009F080E00895CF93DF93EC01892B39F168
S1131FE06115710531F19091C805963020F5292FBE
S1131FF030E0F901EE0FFF1FDF01A20FB31FAA0F9C
S1132000BB1FA753BA4F15967C936E9314971196E2
S11320101C92119713961C921E921297FD0181E057
S1132020808398839F5F9093C80580E005C081E01A
S113203003C081E001C081E0DF91CF910895CF9288
S1132040DF92EF92FF9280918D0890918E08019615
S113205090938E0880938D0880E043C0282F30E051
S1132060F901EE0FFF1FE20FF31FEE0FFF1FE753FF
S1132070FA4FA481B5819C91913091F5F901EE0F4D
S1132080FF1FE20FF31FEE0FFF1FE753FA4F90817C
S1132090913031F5F901EE0FFF1FE20FF31FEE0F40
S11320A0FF1FE753FA4F428153814F5F5F4F5383C2
S11320B0428312966D917C9113974617570780F0CF
S11320C0F901EE0FFF1FDF01A20FB31FAA0FBB1F01
S11320D0A753BA4F13961C921E921297FD01918337
S11320E08F5F9091C805891708F4B8CF20E047C0E6
S11320F0822F90E0FC01EE0FFF1FE80FF91FEE0F97
S1132100FF1FE256FA4F30813130C1F5FC01EE0F6A
S1132110FF1FE80FF91FEE0FFF1FE256FA4F42812F
S113212053814F5F5F4F5383428360E070E0A4812B
S1132130B5811196CD90DD90ED90FC9014974C15DF
S11321405D056E057F05D0F0FC01EE0FFF1FE80F63
S1132150F91FEE0FFF1FE256FA4F318313821282EA
S11321604C91423009F030E0FC01EE0FFF1FE80F04
S1132170F91FEE0FFF1FE256FA4F30832F5F809155
S11321809D05281708F4B4CF80E017C0282F30E04D
S1132190F901EE0FFF1FE157F74F40815181452BA5
S11321A059F0220F331FF901E157F74F2081318194
S11321B021503109318320838F5F823038F3FF90BF
S11321C0EF90DF90CF9008950E944D080895CF932B
S11321D0C0E032C08C2F90E0FC01EE0FFF1FE80F2F
S11321E0F91FEE0FFF1FE753FA4F2181213019F534
S11321F0FC01EE0FFF1FE80FF91FEE0FFF1FE7535F
S1132200FA4F20812130B9F4FC01EE0FFF1FDF01EA
S1132210A80FB91FAA0FBB1FA753BA4F11961C9240
S11322201197FD010480F581E02D0480F581E02DF6
S1132230309709F00995CF5F8091C805C81750F20F
S1132240C0E026C08C2F90E0FC01EE0FFF1FE80FCA
S1132250F91FEE0FFF1FE256FA4F21812130B9F426
S1132260FC01EE0FFF1FDF01A80FB91FAA0FBB1F50
S1132270A256BA4F11961C921197FD010480F58164
S1132280E02D0580F681E02D309709F00995CF5FA8
S113229080919D05C817B0F2CF9108951F920F92B7
S11322A00FB60F9211242F933F934F935F936F9325
S11322B07F938F939F93AF93BF93EF93FF930E946A
S11322C01F108091F405823069F4809109068823F7
S11322D031F0E4EFF5E085898150858B03C086B148
S11322E0806486B9FF91EF91BF91AF919F918F91D7
S11322F07F916F915F914F913F912F910F900FBEFE
S11323000F901F901895FB0120C070817927272F0B
S113231022952F707227382F2227A72FB0E040E094
S1132320572F5295507FC901842795279D01220F6D
S1132330331F22953295307F3227207F3227822720
S113234093278A279B27462F31966FEF640F4111FD
S1132350DCCF0895809393081092F3050895CF93EA
S1132360DF93282F8091F3058230E9F028F4882345
S113237041F0813089F039C0833011F1843069F142
S113238034C02E3709F073C0DB012C939091F30510
S11323909F5F9093F30570C0FB0121838F5F80934F
S11323A0F30580E069C0DB0112962C9391E0980F4D
S11323B09093F3058091930828135BC080E05CC080
S11323C0293F20F01092F30582E056C0FB012383DD
S11323D08F5F8093F30580E04FC0DB0114962C934C
S11323E08F5F8093F30580E047C0E82FF0E0DB01C6
S11323F013969C91A92FB0E0AD014B5F5F4FE4179A
S1132400F5074CF43597E60FF71F25838F5F80930C
S1132410F30580E031C0E417F50751F4FB01E35004
S1132420FF4F108221838F5F8093F30580E024C0E7
S11324301696EA17FB07B9F4FB01E350FF4FC0817E
S1132440D181C22BD183C0831092F30544E0490F9C
S11324506F5F7F4F80E090E00E948311C817D90717
S113246051F481E009C01092F30584E005C082E0D4
S113247003C083E001C082E0DF91CF910895E89426
S113248009C097FB3EF490958095709561957F4FB8
S11324908F4F9F4F9923A9F0F92F96E9BB27939566
S11324A0F695879577956795B795F111F8CFFAF476
S11324B0BB0F11F460FF1BC06F5F7F4F8F4F9F4FA7
S11324C016C0882311F096E911C0772321F09EE805
S11324D0872F762F05C0662371F096E8862F70E06B
S11324E060E02AF09A95660F771F881FDAF7880F45
S11324F09695879597F908950E948F120C9400136E
S11325000E94F21238F00E94F91220F0952311F083
S11325100C94E9120C94EF1211240C9434130E94BD
S1132520111370F3959FC1F3950F50E0551F629FEF
S1132530F001729FBB27F00DB11D639FAA27F00D18
S1132540B11DAA1F649F6627B00DA11D661F829F3F
S11325502227B00DA11D621F739FB00DA11D621F24
S1132560839FA00D611D221F749F3327A00D611D41
S1132570231F849F600D211D822F762F6A2F112423
S11325809F5750409AF0F1F088234AF0EE0FFF1F56
S1132590BB1F661F771F881F91505040A9F79E3FAD
S11325A0510580F00C94E9120C9434135F3FE4F36A
S11325B0983ED4F3869577956795B795F795E79503
S11325C09F5FC1F7FE2B880F911D9695879597F90C
S11325D0089597F99F6780E870E060E008959FEFA1
S11325E080EC089500240A941616170618060906A6
S11325F0089500240A941216130614060506089575
S1132600092E0394000C11F4882352F0BB0F40F4FC
S1132610BF2B11F460FF04C06F5F7F4F8F4F9F4F3C
S1132620089557FD9058440F551F59F05F3F71F0BE
S11326304795880F97FB991F61F09F3F79F0879525
S11326400895121613061406551FF2CF4695F1DFAE
S113265008C0161617061806991FF1CF869571053E
S1132660610508940895E894BB2766277727CB0172
S113267097F90895A0E1B0E0E0E4F3E10C94FA16D0
S11326807C011B016A01FC0117821682838181FF90
S113269044C39E012F5F3F4F3901F7019381F1013C
S11326A093FD859193FF81911F01882309F431C320
S11326B0853239F493FD859193FF81911F01853211
S11326C039F4B70190E00E945D1856016501E5CF29
S11326D010E0512C912CFFE1F915D8F08B3279F0F0
S11326E038F4803279F08332A1F4F92DF0612EC0F0
S11326F08D3261F0803369F4292D21602DC0392D8C
S11327003260932E892D8460982E2AC0E92DE860CA
S113271015C097FC2DC020ED280F2A3088F496FEB2
S113272006C03AE0139F200D1124122F19C08AE02D
S1132730589E200D1124522EE92DE0629E2E10C0C9
S11327408E3231F496FCE5C2F92DF0649F2E08C058
S11327508C3621F4292D2068922E02C0883641F44B
S1132760F10193FD859193FF81911F018111B3CFF5
S11327709BEB980F933020F4992D9061805E07C0F5
S11327809BE9980F933008F066C1992D9F7E96FFC0
S113279016E09F73992E853619F49064992E08C01B
S11327A0863621F4392F3068932E02C0111111504E
S11327B097FE07C01C3350F444244394410E27E091
S11327C00BC0183038F027E017E005C027E09CE381
S11327D0492E02C0212F412C560184E0A80EB11CC1
S11327E0F6016081718182819381042DA3010E948D
S11327F05E176C01F981FC87F0FF02C0F3FF06C08D
S113280091FC06C092FE06C000E205C00DE203C0C2
S11328100BE201C000E08C858C7019F001115AC2E2
S11328209BC297FE10C04C0CFC85F4FF04C08A8147
S1132830813309F44A94141474F528E0241578F5C6
S113284088E0482E2CC096FC2AC0812F90E08C157D
S11328509D059CF03CEFC3163FEFD30674F0892D21
S11328608068982E0AC0E2E0F0E0EC0FFD1FE10F53
S1132870F11D8081803319F411501111F4CF97FEAA
S11328800EC044244394410E812F90E0C816D9060B
S11328902CF41C1904C04424439401C010E097FE96
S11328A006C01C141D0434F4C601019605C085E05D
S11328B090E002C081E090E001110196112331F013
S11328C0212F30E02F5F3F4F820F931F252D30E0E3
S11328D08217930714F4581A01C0512C892D89705A
S11328E049F4552039F0B70180E290E00E945D1868
S11328F05A94F7CF002329F0B701802F90E00E946B
S11329005D1893FC09C0552039F0B70180E390E0CD
S11329100E945D185A94F7CF97FE4CC04601D7FE2B
S113292002C0812C912CC60188199909F301E80F82
S1132930F91FFE87ED87960124193109388B2F87FB
S1132940012F10E01195019511093FEF83169306AD
S113295029F4B7018EE290E00E945D18C814D904EE
S11329604CF08F8598898815990524F4ED85FE85AA
S1132970818101C080E3F1E08F1A91082D853E85A5
S11329802F5F3F4F3E872D87801691062CF0B701AD
S113299090E00E945D18D9CFC814D90441F49A81FB
S11329A0963320F4953319F43C8534FF81E3B70161
S11329B090E04EC08A81813319F09C859F7E9C876C
S11329C0B70190E00E945D18111105C094FC18C075
S11329D085E690E017C0B7018EE290E00E945D1892
S11329E01E5F82E001E0080FF301E80FF11D808112
S11329F0B70190E00E945D18802F0113F3CFE6CF5A
S1132A0085E490E0B7010E945D18D7FC06C0C114AC
S1132A10D10441F4EC85E4FF05C0D194C194D108FC
S1132A208DE201C08BE2B70190E00E945D1880E363
S1132A302AE0C216D1042CF08F5FFAE0CF1AD10835
S1132A40F7CFB70190E00E945D18B701C601C096A8
S1132A500E945D1854C1833631F0833779F0833591
S1132A6009F056C020C0560132E0A30EB11CF60195
S1132A708081898301E010E0630112C05601F2E015
S1132A80AF0EB11CF601C080D18096FE03C0612F49
S1132A9070E002C06FEF7FEFC6010E944A188C01FC
S1132AA0F92DFF7714C0560122E0A20EB11CF601E5
S1132AB0C080D18096FE03C0612F70E002C06FEF2A
S1132AC07FEFC6010E9436188C01F92DF0689F2E05
S1132AD0F3FD1AC0852D90E008171907A8F4B70173
S1132AE080E290E00E945D185A94F4CFF60197FCBE
S1132AF0859197FE81916F01B70190E00E945D1866
S1132B0051105A94015011090115110579F7F7C0B4
S1132B10843611F0893661F5560197FE09C024E028
S1132B20A20EB11CF60160817181828193810AC079
S1132B30F2E0AF0EB11CF60160817181072E000C2A
S1132B40880B990BF92DFF769F2E97FF09C090955E
S1132B508095709561957F4F8F4F9F4FF0689F2EA2
S1132B602AE030E0A3010E94BB18C82EC6183FC05B
S1132B70092D853721F40F7E2AE030E01DC0097F3E
S1132B808F3691F018F4883559F0C3C0803719F0A6
S1132B90883711F0BEC0006104FF09C0046007C09B
S1132BA094FE08C0066006C028E030E005C020E1BD
S1132BB030E002C020E132E0560107FF09C084E0A2
S1132BC0A80EB11CF601608171818281938108C0D5
S1132BD0F2E0AF0EB11CF6016081718180E090E0FB
S1132BE0A3010E94BB18C82EC6180F77902E96FE1C
S1132BF00BC0092D0E7FC11650F494FE0AC092FC3E
S1132C0008C0092D0E7E05C0DC2C092D03C0DC2C68
S1132C1001C0D12E04FF0DC0FE01EC0DF11D808119
S1132C20803311F4097E09C002FF06C0D394D39403
S1132C3004C0802F867809F0D39403FD11C000FFEF
S1132C4006C01C2DD51480F4150D1D190DC0D51406
S1132C5058F4B70180E290E00E945D18D394F7CF56
S1132C60D51410F45D1801C0512C04FF10C0B70135
S1132C7080E390E00E945D1802FF17C001FD03C0CD
S1132C8088E790E002C088E590E0B7010CC0802F8F
S1132C90867859F001FF02C08BE201C080E207FD93
S1132CA08DE2B70190E00E945D18C11638F4B701B7
S1132CB080E390E00E945D181150F7CFCA94F301AD
S1132CC0EC0DF11D8081B70190E00E945D18C110E8
S1132CD0F5CF15C0F4E0F51560F584E0581A93FEBD
S1132CE01FC0011127C02C8523FF2AC004E311E073
S1132CF0392D3071932EF8018491811124C055200F
S1132D0009F4E4CCB70180E290E00E945D185A9483
S1132D10F6CFF7018681978126C08FEF9FEF23C0FE
S1132D20B70180E290E00E945D185A945110F8CFE8
S1132D30D8CF512CB701802F90E00E945D18D3CFDB
S1132D4008E311E0D5CF91108052B70190E00E94C2
S1132D505D180F5F1F4FCFCF23E0251510F483E0DC
S1132D60BDCF512CC0CF6096E2E10C941617DB0165
S1132D708F939F930E94EF16BF91AF91A29F800DF6
S1132D80911DA39F900DB29F900D11240895A1E26F
S1132D901A2EAA1BBB1BFD010DC0AA1FBB1FEE1FD1
S1132DA0FF1FA217B307E407F50720F0A21BB30B1C
S1132DB0E40BF50B661F771F881F991F1A9469F798
S1132DC060957095809590959B01AC01BD01CF01F4
S1132DD00895EE0FFF1F0590F491E02D09940E94D1
S1132DE03117A59F900DB49F900DA49F800D911D48
S1132DF0112408952F923F924F925F926F927F9287
S1132E008F929F92AF92BF92CF92DF92EF92FF92F6
S1132E100F931F93CF93DF93CDB7DEB7CA1BDB0BA2
S1132E200FB6F894DEBF0FBECDBF09942A88398847
S1132E3048885F846E847D848C849B84AA84B9844E
S1132E40C884DF80EE80FD800C811B81AA81B9815A
S1132E50CE0FD11D0FB6F894DEBF0FBECDBFED016E
S1132E600895A29FB001B39FC001A39F700D811D5F
S1132E701124911DB29F700D811D1124911D08957F
S1132E80FC0188279927E89421912032E9F329301D
S1132E9010F02E30C8F32B3241F02D3239F46894FF
S1132EA004C00E945518820F911D219120532A308D
S1132EB0C0F31EF4909581959F4F0895283008F033
S1132EC027E03327DA01990F311D87FD91600096C1
S1132ED06105710539F432602E5F3D9330E32A9524
S1132EE0E1F708959F3F30F080387105610509F0DE
S1132EF03C5F3C5F3D93913008F08068911DDF9307
S1132F00CF931F930F93FF92EF92192F987F96956B
S1132F10E92F96959695E90FFF27EA56FE4F9927D4
S1132F203327EE24FF24A701E701059008940794B2
S1132F3028F4360FE71EF81E491F511D660F771F30
S1132F40881F991F0694A1F70590079428F4E70EAB
S1132F50F81E491F561FC11D770F881F991F661F32
S1132F600694A1F70590079428F4F80E491F561FFC
S1132F70C71FD11D880F991F661F771F0694A1F7DD
S1132F800590079420F4490F561FC71FD81F990FA7
S1132F90661F771F881F0694A9F7849110951770F0
S1132FA041F0D695C79557954795F794E7941A95A8
S1132FB0C1F7ECE3F1E068941590159135916591B2
S1132FC0959105907FE27395E118F10A430B560B36
S1132FD0C90BD009C0F7E10CF11E431F561FC91FCE
S1132FE0D01D7EF4703311F48A95E6CFE894015035
S1132FF030F0080F0AF40027021708F4202F239555
S1133000022F7A3328F079E37D932A95E9F710C0EB
S11330107D932A9589F60694979567953795179524
S11330201794E118F10A430B560BC90BD00998F019
S113303023957E9173957A3308F070E37C93201383
S1133040B8F77E9170617D9330F0839571E37D9341
S113305070E32A95E1F71124EF90FF900F911F91EF
S1133060CF91DF91992787FD90950895FC010590F4
S1133070615070400110D8F7809590958E0F9F1F76
S11330800895FB01DC018D91019080190110D9F3A1
S1133090990B0895FC016150704001900110D8F71C
S11330A0809590958E0F9F1F08957AE0979F902D9D
S11330B0879F802D910D112408950F931F93CF9313
S11330C0DF93FB01238121FD03C08FEF9FEF2CC011
S11330D022FF16C046815781248135814217530748
S11330E044F4A081B1819D012F5F3F4F3183208340
S11330F08C93268137812F5F3F4F3783268314C0FB
S11331008B01EC01FB010084F185E02D0995892BED
S1133110E1F6D80116968D919C9117970196179612
S11331209C938E931697CE01DF91CF911F910F91AF
S11331300895AEE0B0E0EFE9F8E10C9408170D89CA
S11331401E8986E08C831A8309838FEF9FE79E8311
S11331508D83AE01475E5F4F6F89788DCE010196F6
S11331600E943A13EF81F885E00FF11F10822E962A
S1133170E4E00C942417FA01AA27283051F12031F5
S113318081F1E8946F936E7F6E5F7F4F8F4F9F4FF7
S1133190AF4FB1E03ED0B4E03CD0670F781F891F39
S11331A09A1FA11D680F791F8A1F911DA11D6A0F07
S11331B0711D811D911DA11D20D009F468943F91BA
S11331C02AE0269F11243019305D3193DEF6CF01B9
S11331D00895462F4770405D4193B3E00FD0C9F77F
S11331E0F6CF462F4F70405D4A3318F0495D31FDEC
S11331F04052419302D0A9F7EACFB4E0A69597953F
S1133200879577956795BA95C9F700976105710514
S113321008959B01AC010A2E06945795479537955E
S11332202795BA95C9F7620F731F841F951FA01DB8
S10932300895F894FFCF9D
S1133236FF01000A00A805FF0100F4015606CC06AA
S1133246C60606070207C206BE06FE06FA06F60606
S1133256F206BA06B606EE06EA06B206AE063C075D
S1133266360730072A07E606E206160712070E0790
S11332760A07D606D206260722071E071A07460796
S11332864207DE06DA064A074F07FF010064000F0D
S1133296087D068507FF01000A00240F8E02BC0D77
S11332A69702DC029B0DB702E102A50EED0229038B
S11332B6D20E32036703FE0E6F0300000000000007
S11332C69F03A403B603CE03E5030203020303022A
S11332D6030203030203030203030202024572729A
S11332E66F7220646574656374656420210D0A0039
S11332F65642555320495320544F4F204C4F5700A4
S11333065642555320495320544F4F204849474865
S1133316004F6666005265616479004F7665727681
S11333266F6C74616765004F76657263757272655A
S11333366E74004F6E00070502000A0D11060403A1
S1133346010B0C0E0F08091012E101E501EB01F760
S1133356010302303132333435363738396162632A
S1133366646566004552524F52000A417661696CA3
S113337661626C6520636F6D6D616E64730D0A0026
S11333862D2D2D2D2D2D2D2D2D2D2D2D2D2D2D2D63
S11333962D2D0D0A00203A20002025322E326600FB
S11333A60D0A3E2000504455204649524D5741527D
S11333B6452056312E302E30200D0A003E0073680B
S11333C66F775F616C6C00203A2053686F772061D9
S11333D66C6C206368616E6E656C20706172616DE1
S11333E665746572732000203A20446973706C61B9
S11333F679206C697374206F6620636F6D6D616EDE
S113340664732C20666F726D61743A2068656C7003
S1133416007365745F6368616E6E656C00203A20A4
S1133426536574206368616E6E656C204E204F662A
S1133436662F4F6E2C20666F726D61743A20736529
S1133446745F6368616E6E656C204E20302F312088
S1133456284E203C20313029007365745F62756301
S11334666B00203A20536574206275636B204E20EE
S11334764F66662F4F6E2C20666F726D61743A200C
S11334867365745F6275636B204E20302F3120287C
S11334964E203C203729007365745F616C6C0020F4
S11334A63A205475726E204F66662F4F6E20616CFB
S11334B66C206368616E6E656C2C20666F726D613C
S11334C6743A207365745F616C6C20302F31004F41
S11334D64B0D0A00434D444C494E455F4241445FFF
S11334E6434D440D0A00434D444C494E455F544FE9
S11334F64F5F4D414E595F415247530D0A00434DAC
S1133506444C494E455F544F4F5F4645575F4152C1
S113351647530D0A00434D444C494E455F494E56A8
S10F3526414C49445F4152470D0A00002B
S9030000FC
