:100000000C94E4030C9401040C9401040C9401047A
:100010000C9401040C9401040C9401040C9401044C
:100020000C9401040C9401040C9401040C9401043C
:100030000C9401040C9401040C9401040C9400131E
:100040000C9401040C9401040C940E0E0C945A0EA2
:100050000C9401040C94A4040C9401040C94010469
:100060000C9401040C9401040C9401040C940104FC
:100070000C9401040C9401040C94930E0C94E20E65
:100080000C9401040C9401040C9401046E616E0044
:10009000696E660000407A10F35A00A0724E18098B
:1000A0000010A5D4E80000E87648170000E40B54DF
:1000B000020000CA9A3B000000E1F50500008096AE
:1000C0009800000040420F000000A08601000000E0
:1000D000102700000000E80300000000640000009A
:1000E00000000A00000000000100000000002C7663
:1000F000D888DC674F0823DFC1DFAE59E1B1B7967E
:10010000E5E3E453C63AE651997696E8E6C28426DA
:10011000EB898C9B62ED407C6FFCEFBC9C9F40F2B6
:10012000BAA56FA5F490055A2AF75C936B6CF96732
:100130006DC11BFCE0E40D47FEF520E6B500D0EDF7
:10014000902E0300943577050080841E080000205F
:100150004E0A000000C80C333333330F986E1283FD
:100160001141EF8D2114893BE65516CFFEE6DB18D1
:10017000D1844B381BF77C1D901DA4BBE424203296
:1001800084725E228100C9F124ECA1E53D2754452B
:1001900043315F4255434B000000544543325F42B8
:1001A00055434B000000544543335F4255434B00D9
:1001B0000000544543345F4255434B0000004D431B
:1001C000555F4255434B200000004C45445F42556B
:1001D000434B20000000434D345F4255434B200009
:1001E00000005445433120202020200000005445C9
:1001F000433220202020200000005445433320209B
:1002000020202000000054454334202020202000DE
:10021000000043504F432020202020000000494F81
:10022000552020202020200000004C45445F5247EC
:100230004220200000004C45445F4952202020000D
:100240000000434D3420202020202000000056498B
:100250004E50555420202000000053555045524325
:1002600041502000000056425553202020202000FD
:1002700000000D0A00000000000000000000000067
:10028000000000000000000000000000000000006E
:10029000000000000000000000000000000000005E
:1002A000000000000000000000000000000000004E
:1002B0000000002E2E2E2E2E2E2E2E2E2E2E2E2EE8
:1002C0002E2E2E2E2E2E2E2E2E2E2E2E2E2E2E2E4E
:1002D0002E2E2E2E2E2E2E2E2E2E2E2E2E2E2E2E3E
:1002E0002E2E2E2E2E2E2E2E2E2E0D0A000000002B
:1002F000000000002E2E2E2E2E2E2E2E2E2E2E2ED6
:100300002E2E2E2E2E2E2E2E2E2E2E2E2E2E2E2E0D
:100310002E2E2E2E2E2E2E2E2E2E2E2E2E2E2E2EFD
:100320002E2E2E2E2E2E2E2E2E2E2E0D0A000000BC
:1003300000000000002E2E20202020205F5F5F5F45
:1003400020202020202020202020202020202020AD
:10035000202020202020205F20202020205F205FE0
:10036000202020202020202020202E2E0D0A0000DA
:100370000000000000002E2E202020202F205F5F94
:100380005F7C205F205F5F2020205F5F205F202058
:100390005F5F5F205F5F5F7C207C202020285F7C88
:1003A0005F295F205F5F5F202020202E2E0D0A0036
:1003B000000000000000002E2E202020205C5F5F47
:1003C0005F205C7C20275F205C202F205F60207CEA
:1003D0002F205F5F2F205F205C207C2020207C204E
:1003E0007C207C20275F20205C2020202E2E0D0AE0
:1003F00000000000000000002E2E20202020205FA2
:100400005F5F29207C207C5F29207C20285F7C2066
:100410007C20285F7C20205F5F2F207C5F5F5F7CDB
:10042000207C207C207C207C207C2020202E2E0DF7
:100430000A00000000000000002E2E202020207C5A
:100440005F5F5F5F2F7C202E5F5F2F205C5F5F2CE4
:100450005F7C5C5F5F5F5C5F5F5F7C5F5F5F5F5F78
:100460007C5F7C5F7C5F7C207C5F7C2020202E2E4C
:100470000D0A00000000000000002E2E2020202089
:100480002020202020207C5F7C202020205F5F5FB8
:100490005F20205F5F5F5F20205F2020205F2020A3
:1004A0002020202020202020202020202020202E3E
:1004B0002E0D0A00000000000000002E2E2020203B
:1004C000202020202020202020202020207C2020D0
:1004D0005F205C7C20205F205C7C207C207C207C5A
:1004E000202020202020202020202020202020200C
:1004F0002E2E0D0A00000000000000002E2E2020ED
:1005000020202020202020202020202020207C208F
:100510007C5F29207C207C207C207C207C207C200F
:100520007C2020202020202020202020202020206F
:10053000202E2E0D0A00000000000000002E2E20AC
:100540002020202020202020202020202020207C4F
:1005500020205F5F2F7C207C5F7C207C207C5F7C68
:10056000207C20202020202020202020202020202F
:1005700020202E2E0D0A00000000000000002E2E6C
:10058000202020202020202020202020202020206B
:100590007C5F7C2020207C5F5F5F5F2F205C5F5F43
:1005A0005F2F2020202020202020202020202020FD
:1005B0002020202E2E0D0A00000000000000002E3A
:1005C0002E20202020202020202020202020205FDE
:1005D0005F20202020205F5F5F2020205F5F5F2062
:1005E00020205F5F5F20202020202020202020204E
:1005F000202020202E2E0D0A000000000000000008
:100600002E2E2020202020202020202020202020CE
:100610005C205C2020202F202F207C202F205F209A
:100620005C202F205F205C20202020202020202004
:1006300020202020202E2E0D0A00000000000000A7
:10064000002E2E20202020202020202020202020AE
:1006500020205C205C202F202F7C207C7C207C2094
:100660007C207C207C207C207C20202020202020BE
:100670002020202020202E2E0D0A00000000000047
:1006800000002E2E2020202020202020202020208E
:10069000202020205C2056202F207C207C7C207C69
:1006A0005F7C207C207C5F7C207C20202020202000
:1006B000202020202020202E2E0D0A0000000000E7
:1006C0000000002E2E20202020202020202020206E
:1006D0002020202020205C5F2F20207C5F285F29A5
:1006E0005F5F5F285F295F5F5F2F20202020202031
:1006F00020202020202020202E2E0D0A0000000087
:10070000000000002E2E202020202020202020204D
:1007100020202020202020202020202020202020D9
:1007200020202020202020202020202020202020C9
:100730002020202020202020202E2E0D0A00000026
:1007400000000000002E2E2E2E2E2E2E2E2E2E2EAF
:100750002E2E2E2E2E2E2E2E2E2E2E2E2E2E2E2EB9
:100760002E2E2E2E2E2E2E2E2E2E2E2E2E2E2E2EA9
:100770002E2E2E2E2E2E2E2E2E2E2E2E0D0A00003A
:100780000000000000002E2E2E2E2E2E2E2E2E2E9D
:100790002E2E2E2E2E2E2E2E2E2E2E2E2E2E2E2E79
:1007A0002E2E2E2E2E2E2E2E2E2E2E2E2E2E2E2E69
:1007B0002E2E2E2E2E2E2E2E2E2E2E2E2E0D0A00CC
:1007C000000000000000000011241FBECFEFD0E1A8
:1007D000DEBFCDBF15E0A0E0B1E0EEEEF8E302C071
:1007E00005900D92A232B107D9F729E0A2E2B5E057
:1007F00001C01D92AC3BB207E1F70E94260A0C949F
:10080000751C0C94000082B38F7D82BB81B3806223
:1008100081BB089582B3806282BB089582B38F7DCD
:1008200082BB089580B3807290E0959587959595E9
:10083000879595958795959587959595879508952D
:10084000843148F4E82FF0E07396EE0FFF1FE55E69
:10085000F84F72A761A70895F89487E886B983E0F6
:1008600087B986B1886086B982E080931B0780E0F3
:1008700006C0E82FF0E0E55EF84F11828F5F83310C
:10088000C0F36BE772E080E00E94200462ED72E04A
:1008900081E00E9420046BE772E082E00E94200465
:1008A00062ED72E083E00E94200462ED72E084E079
:1008B0000E9420046BE772E085E00E94200462ED54
:1008C00072E086E00E9420046BE772E087E00E94FD
:1008D000200467E271E088E00E9420046FED72E07E
:1008E00089E00E9420046BE772E08AE00E94200405
:1008F00067E271E08BE00E94200467E271E08CE027
:100900000E9420046BE772E08DE00E9420046BE7F8
:1009100072E08EE00E94200467E271E08FE00E94A6
:10092000200460E273E080E10E9420046AE171E04B
:1009300081E10E94200461E571E082E10E942004CF
:100940000E943705789408951F920F920FB60F9268
:1009500011240F931F932F933F934F935F936F93A4
:100960007F938F939F93AF93BF93CF93EF93FF9317
:10097000C0912F070C2F10E0F8017396EE0FFF1FA8
:10098000E55EF84F21A532A584B195B12817390746
:1009900088F4F801E55EF84F86898F5F868B86893B
:1009A0008B3088F08C2F0E946A0CF801E55EF84FBE
:1009B000168A09C0C93019F481E080939A07F801BA
:1009C000E55EF84F168AC93049F484B195B18C3888
:1009D000914020F40E944C0B10929A0784B195B17B
:1009E000000F111FF801E55EF84F92A781A7CF5FB6
:1009F000C0939007C33150F083E087B980E00E9434
:100A00005A0585E080931B07C0E018C0C03130F460
:100A10008C2F0E945A0583E087B90DC0C03111F4B4
:100A200017B809C0C13119F481E087B904C0C231D7
:100A300011F482E087B982E080931B07EBE1F7E0D5
:100A4000C48B83E0858BFF91EF91CF91BF91AF91E4
:100A50009F918F917F916F915F914F913F912F91D6
:100A60001F910F910F900FBE0F901F90189582B19C
:100A7000846082B982B1886082B982B1806282B9B1
:100A800082B1806182B9E1E6F0E08081877F808376
:100A900083B18B7F83B983B1877F83B983B18F7D26
:100AA00083B983B18F7E83B9E2E6F0E08081877FEE
:100AB0008083089580FF04C093B1946093B903C00C
:100AC00093B19B7F93B981FF04C093B1986093B9B0
:100AD00003C093B1977F93B982FF04C093B1906232
:100AE00093B903C093B19F7D93B983FF04C083B1D1
:100AF000806183B9089583B18F7E83B908950E9480
:100B0000590D83E00E9480130E94A90D909328063E
:100B1000809327068BEA95E0909324058093230524
:100B200008950E947F0561E071E080E091E00E94FD
:100B30009D1108954F925F926F927F928F929F9234
:100B4000AF92BF92EF92FF920F931F93CF93DF93D9
:100B5000CDB7DEB765970FB6F894DEBF0FBECDBF39
:100B6000F82E1982FE01329684E1DF011D928A95EA
:100B7000E9F7F8940F2D10E0F801E25EFC4FE081F8
:100B8000F0E0EE0FFF1FE55EF84F61A572A580E073
:100B900090E00E94ED154B015C01F801E95DFC4F0E
:100BA000E081F0E0EE0FFF1FE55EF84F61A572A552
:100BB00080E090E00E94ED157894B7E0BF1548F012
:100BC0002FE632E143E05CE30E947B162B013C01FF
:100BD00008C029E539E344E35DE30E947B162B015D
:100BE0003C012FE030E54EE65BE3C501B4010E9415
:100BF0007B164B015C01998181E0890FE2E0F0E016
:100C0000EC0FFD1FE90FF11DF082FF24F394F80EA5
:100C1000F801ED5BFC4FE081F0E0EF56F84F90817A
:100C2000E2E0F0E0EC0FFD1FE80FF11D908320E003
:100C300030E048EC52E4C301B2010E947B160E94EE
:100C4000BE1581E08F0DE2E0F0E0EC0FFD1FEF0D2F
:100C5000F11D708311E0180FE2E0F0E0EC0FFD1FD2
:100C6000E80FF11D608320E030E048EC52E4C5015C
:100C7000B4010E947B160E94BE1581E0810FE2E064
:100C8000F0E0EC0FFD1FE10FF11D708341E0480F14
:100C90004983E2E0F0E0EC0FFD1FE80FF11D6083F7
:100CA000E0912305F0912405808150E00F2EF5E2BC
:100CB000EF2EF5E0FF2EF02D00E010E021E030E017
:100CC000BE016E5F7F4F90E00E94C413AE014F5F84
:100CD0005F4FBE016E5F7F4FC7010E94E1136981C4
:100CE000CE0102960E94920D65960FB6F894DEBF73
:100CF0000FBECDBFDF91CF911F910F91FF90EF906D
:100D0000BF90AF909F908F907F906F905F904F902B
:100D100008954F925F926F927F928F929F92AF92BF
:100D2000BF92DF92EF92FF920F931F93CF93DF93C7
:100D3000CDB7DEB765970FB6F894DEBF0FBECDBF57
:100D4000D82E1982FE01329684E1DF011D928A9528
:100D5000E9F7F894ED2CF12CF701ED5BFC4FE08105
:100D6000F0E0EE0FFF1FE55EF84F61A572A580E091
:100D700090E00E94ED154B015C018701005F1C4F64
:100D8000D801EC91F0E0EE0FFF1FE55EF84F61A592
:100D900072A580E090E00E94ED152B013C01D80186
:100DA0001796EC91EF3F99F0F0E0EE0FFF1FE55E34
:100DB000F84F61A572A580E090E00E94ED159B01BF
:100DC000AC01C301B2010E9452152B013C01789481
:100DD000B5E0BD1558F02FE632E143E05CE3C50114
:100DE000B4010E947B164B015C010AC029E539E37E
:100DF00044E35DE3C501B4010E947B164B015C0135
:100E00002FE030E54EE65BE3C301B2010E947B16A2
:100E10002B013C01998181E0890FE2E0F0E0EC0FC9
:100E2000FD1FE90FF11DD08211E0180FF701ED5BF6
:100E3000FC4FE081F0E0EF56F84F9081E2E0F0E007
:100E4000EC0FFD1FE80FF11D908320E030E048EC2F
:100E500052E4C501B4010E947B160E94BE1581E0D8
:100E6000810FE2E0F0E0EC0FFD1FE10FF11D708358
:100E700011E0180FE2E0F0E0EC0FFD1FE80FF11DAC
:100E8000608320E030E048EC52E4C301B2010E94EC
:100E90007B160E94BE1581E0810FE2E0F0E0EC0FCE
:100EA000FD1FE10FF11D708341E0480F4983E2E02F
:100EB000F0E0EC0FFD1FE80FF11D6083E0912305CA
:100EC000F0912405808150E00F2EF5E2EF2EF5E041
:100ED000FF2EF02D00E010E021E030E0BE016E5F5B
:100EE0007F4F90E00E94C413AE014F5F5F4FBE0181
:100EF0006E5F7F4FC7010E94E1136981CE010296A8
:100F00000E94920D65960FB6F894DEBF0FBECDBF5E
:100F1000DF91CF911F910F91FF90EF90DF90BF90E5
:100F2000AF909F908F907F906F905F904F900895BB
:100F3000CF92DF92EF92FF920F931F93CF93DF93A5
:100F4000CDB7DEB760970FB6F894DEBF0FBECDBF4A
:100F500019826E0182E0C80ED11C8FE0F601119259
:100F60008A95E9F7E0912305F091240580818A8331
:100F70000F2EF5E2EF2EF5E0FF2EF02D00E010E051
:100F800021E030E041E050E0B60180E090E00E94D6
:100F9000C413AE014F5F5F4FB601C7010E94E1135A
:100FA0006981C6010E94920D60960FB6F894DEBF6B
:100FB0000FBECDBFDF91CF911F910F91FF90EF90AA
:100FC000DF90CF900895EF92FF920F931F93CF93EE
:100FD000DF93CDB7DEB7CD56D1090FB6F894DEBF9B
:100FE0000FBECDBF1982FE01329686E4DF011D924D
:100FF0008A95E9F7F89420E012C0822F90E0880FDC
:10100000991FFC01E55EF84F41A552A5E8E4F0E028
:10101000EC0FFD1FE80FF91F518340832F5F233131
:1010200060F3789410E070C0113109F46CC029812C
:1010300001E0020F0983E12FF0E0ED5BFC4F8081BE
:1010400090E0FC01EF56F84F3081E2E0F0E0EC0F69
:10105000FD1FE20FF11D3083880F991FE8E4F0E0D7
:10106000EC0FFD1FE80FF91F6081718180E090E0B7
:101070000E94ED15163038F42FE632E143E05CE3D0
:101080000E947B1625C0163039F429E539E344E384
:101090005DE30E947B161CC0103139F429E539E369
:1010A00044E35DE30E947B1613C0103138F42FE057
:1010B00030E54EE65BE30E947B160AC0113139F140
:1010C000123131F429E539E344E35DE30E947B16F4
:1010D00020E030E048EC52E40E947B160E94BE15EE
:1010E00081E0800FE2E0F0E0EC0FFD1FE00FF11D6A
:1010F000708391E0980F9983E2E0F0E0EC0FFD1F20
:10110000E80FF11D60831F5F133108F48DCFE0916C
:101110002305F09124058081498150E00F2EF5E2EE
:10112000EF2EF5E0FF2EF02D00E010E021E030E0A2
:10113000BE016E5F7F4F90E00E94C413AE014F5F0F
:101140005F4FBE016E5F7F4FC7010E94E11369814F
:10115000CE0102960E94920DC359DF4F0FB6F8944C
:10116000DEBF0FBECDBFDF91CF911F910F91FF90DA
:10117000EF900895CF93DF93E0912305F09124053C
:1011800080818330D1F128F4813061F0823001F127
:101190006FC0853009F456C008F446C0863009F4A3
:1011A0005FC066C081ED91E00E94ED0DE0912305E6
:1011B000F091240581816281893008F059C0623044
:1011C00008F056C0895F0E94D20B0E94980750C059
:1011D00080EF91E00E94ED0DE0912305F091240550
:1011E00081816281873008F043C0623008F040C0DE
:1011F0000E94D20B0E9498073BC08CE092E00E94B4
:10120000ED0DE0912305F0912405D181D23080F5D8
:10121000C0E005C06D2F8C2F0E94D20BCF5FC03174
:10122000C8F30E94980724C087E292E00E94ED0D67
:10123000E0912305F091240581818930C8F40E9452
:101240009A0516C086E492E00E94ED0DE091230518
:10125000F09124058181873058F40E94890608C0E6
:1012600082E692E00E94ED0D0E940E040E94E307C8
:10127000DF91CF9108952BC0809127069091280689
:101280000E943C0D8D3B21F481E08093220508955E
:1012900090912205992359F0109222058C3D09F472
:1012A0008AEC8B3D09F48DEB8E3D09F48FEE66EAF6
:1012B00075E00E94C114813019F0833021F007C01D
:1012C0000E94BA0804C08DE792E00E94ED0D809163
:1012D0002706909128060E94180D882369F2089528
:1012E00082B3806482BB089582B38F7B82BB0895F2
:1012F00082B3806882BB089582B38F7782BB0895E2
:1013000080912906982F917080FF16C080E00E947E
:1013100090118823C9F1809129068E7F8093290638
:101320000E9470090E94780948EE53E060E070E086
:1013300080E00E9485110895911116C080E00E94FE
:101340009011882309F180912906816080932906F4
:101350000E9474090E947C0948EE53E060E070E04E
:1013600080E00E9485110895809129068E7F8093E8
:1013700029060E9470090E94780948EE53E060E057
:1013800070E080E00E948511089580912906982FD1
:10139000917080FF14C080E00E949011882321F199
:1013A000809129068E7F809329060E94700940ED66
:1013B00057E060E070E080E00E948511089591118F
:1013C00013C080E00E949011882371F0809129065B
:1013D0008160809329060E94740948EE53E060E022
:1013E00070E080E00E94851108958091290686951D
:1013F000869519F0813021F008950E9480090895A2
:101400000E94C5090895880F880F9091290693704E
:10141000892B80932906089581B3806481BB82B3B0
:101420008F7B82BB81B3806881BB82B38F7782BBA5
:10143000109229060E9470090E947809089568E0B8
:1014400071E087E091E00E949D1108950E940C0ACE
:101450000E94590D0E9465110E941F0A0E947F057B
:101460000E9491050E9449110E942F110E94DA0CDE
:101470000E9496120E942C040E94570B0E940304A3
:1014800081E00E94030A81E08093A4078FE090E549
:10149000AEE6BBE380932A0690932B06A0932C061E
:1014A000B0932D060E94991210E034C0C12FD0E0F5
:1014B000FE01EE0FFF1FE25FFE4F80819181892BBD
:1014C00041F5FE01E95DFC4FE081F0E0EF56F84F99
:1014D0008081811107C061E0FE01E750FD4F8081EE
:1014E0000E94D20BFE01E65BFC4FE081F0E0EF567C
:1014F000F84F8081811105C061E087E0810F0E9473
:10150000D20BCC0FDD1FC25FDE4F8FEF9FEF9983B1
:1015100088831F5F193050F280911B07853011F6C8
:101520000BC0E82FF0E0EF56F84F908192509230C8
:1015300008F421E08F5F02C080E020E0833188F36F
:10154000222331F082E08093A4070E94030A05C0A1
:1015500081E08093A4070E94030A82E080931B0726
:10156000A1CF8BB381608BBB08958BB38E7F8BBB78
:1015700008958BB388608BBB08958BB3877F8BBB3B
:1015800008958BB380628BBB08958BB38F7D8BBB2B
:101590000895E5E6F0E08081846080830895E5E6C3
:1015A000F0E080818B7F8083089585B3806185BB67
:1015B000089585B38F7E85BB089585B3816085BB13
:1015C000089585B38E7F85BB089585B3886085BBFC
:1015D000089585B3877F85BB08958BB382608BBBED
:1015E00008958BB38D7F8BBB08958BB384608BBBC9
:1015F00008958BB38B7F8BBB08958BB380618BBBBE
:1016000008958BB38F7E8BBB08958BB380648BBBA7
:1016100008958BB38F7B8BBB089585B3806485BBA6
:10162000089585B38F7B85BB089585B3806285BBA4
:10163000089585B38F7D85BB08958BB380688BBB80
:1016400008958BB38F778BBB089585B3806885BB76
:10165000089585B38F7785BB0895E5E6F0E0808136
:10166000826080830895E5E6F0E080818D7F80834D
:10167000089588B3806888BB089588B38F7788BB46
:101680000895089581E992E00E94ED0D089583EA9E
:1016900092E00E94ED0D08950E941204811106C08F
:1016A0000E940A0486EB92E00E94ED0D089588B333
:1016B0008F7B88BB88B38F7788BB87B3806487BBF9
:1016C00087B3806887BB8BB38E7F8BBB8BB3877FE1
:1016D0008BBB8BB38F7D8BBBE5E6F0E080818B7F8E
:1016E000808385B38F7E85BB85B38E7F85BB85B3B5
:1016F000877F85BB8BB38D7F8BBB8BB38B7F8BBB86
:101700008BB38F7E8BBB8BB38F7B8BBB85B38F7B78
:1017100085BB85B38F7D85BB8BB38F778BBB85B343
:101720008F7785BB80818D7F80838AB381608ABB00
:101730008AB388608ABB8AB380628ABBE4E6F0E041
:1017400080818460808384B3806184BB84B3816042
:1017500084BB84B3886084BB8AB382608ABB8AB34B
:1017600084608ABB8AB380618ABB8AB380648ABB87
:1017700084B3806484BB84B3806284BB8AB3806892
:101780008ABB84B3806884BB80818260808380E070
:1017900006C0E82FF0E0EF56F84F10828F5F8331DC
:1017A000C0F308950F931F93CF93DF93D82FC62FC5
:1017B000833108F089C0662359F0E82FF0E0ED5B33
:1017C000FC4FE081F0E0EF56F84F84E0808309C0E1
:1017D000E82FF0E0ED5BFC4FE081F0E0EF56F84FD2
:1017E00010820D2F10E0F801ED5BFC4FE081F0E07E
:1017F000EE0FFF1FEC0FF11DEE0FFF1FEE5CFE4F13
:101800000190F081E02D0995C11137C0D73078F0F3
:10181000C8010797880F991FFC01E05EFE4F2081E9
:101820003181FC01E25FFE4F3183208326C0F80145
:10183000EE5FFC4F80818F3F69F090E0880F991F29
:10184000FC01E05EFE4F20813181FC01E25FFE4F32
:1018500031832083F801EE5FFC4F87818F3F69F071
:1018600090E0880F991FFC01E05EFE4F20813181DE
:10187000FC01E25FFE4F31832083C111C4E084ECA0
:1018800092E00E94ED0DEC2FF0E0EE0FFF1FEA5A00
:10189000FC4F808191810E94ED0D80E290E00E94DA
:1018A000D10DC801880F991F800F911F880F991FB4
:1018B000880F991F82579E4F0E94FA0D8FEA93E07E
:1018C0000E94ED0D81E001C080E0DF91CF911F917A
:1018D0000F9108951F93CF93DF938331F0F5C82FB5
:1018E000D0E0FE01EE0FFF1FEE0FFF1FEE5CFE4F7C
:1018F0000190F081E02D0995FE01E254FE4F108128
:10190000FE01EF56F84F10830E940A048FEA93E01D
:101910000E94ED0DE12FF0E0EE0FFF1FEA5AFC4FA1
:10192000808191810E94ED0D8AEC92E00E94ED0D84
:10193000C05DDC4F888190E09C01220F331F820F35
:10194000931F880F991F880F991F82579E4F0E94DF
:10195000FA0D8FEA93E00E94ED0DDF91CF911F9178
:10196000089580912E06882391F081E00E949011C5
:101970008823F9F010922E0683B18F7B83B948EE4D
:1019800053E060E070E081E00E948511089581E0FD
:101990000E949011882369F081E080932E0683B124
:1019A000806483B948EC50E060E070E081E00E9420
:1019B0008511089582B1806482B982B18F7782B92E
:1019C00083B1806483B983B18F7783B910922E0677
:1019D0006FE771E08EE791E00E949D11089583B753
:1019E000846083BF87B7826087BF7894089583B788
:1019F000886083BF12BE8CE781BF08953FB7F8941B
:101A000021E009C0FC01E058FF4F1082319610829E
:101A10003196108220E02111F5CF3FBF08958E57F7
:101A20009F4FFC01908181E0903809F080E008959B
:101A30008E579F4FFC01908181E0911180E00895C5
:101A4000FB01E058FF4F9081FB01E90FF11D8083FE
:101A50009FB7F89481E00CC0FB01E058FF4F8081F4
:101A60008F5F8F778083329680818F5F808380E065
:101A70008111F2CF9FBF08959C01FC01EF57FF4FEA
:101A80008081F901E80FF11D80814FB7F89491E052
:101A90000CC0F901EF57FF4F90819F5F9F779083B4
:101AA000319690819150908390E09111F2CF4FBF89
:101AB000089580918701909188018D579F4F0E94D2
:101AC000FE0C80918701909188010E94FE0C10927B
:101AD000900089E189B98AB188698AB9E5E9F0E0BD
:101AE0008081866080838BB182608BB97894089501
:101AF000CF93C82F80918701909188018D579F4F78
:101B00000E940F0D8111F6CF6091870170918801BD
:101B10006D577F4F8C2F0E94200D8AB180628AB949
:101B2000CF9108950F931F93CF93DF93FC01D62F8E
:101B3000C0E008C08F010F5F1F4F80810E94780DA9
:101B4000CF5FF801CD17B0F3DF91CF911F910F91C7
:101B50000895809187019091880108958091850171
:101B6000909186018D579F4F0E94FE0C80918501B8
:101B7000909186010E94FE0C1092980089E180935A
:101B80009900EAE9F0E0808188698083EDE9F0E07E
:101B9000808186608083EBE9F0E0808182608083D1
:101BA0000895CF93C82F80918501909186018D571C
:101BB0009F4F0E940F0D8111F6CF609185017091AA
:101BC00086016D577F4F8C2F0E94200DEAE9F0E0CF
:101BD000808180628083CF910895CF93DF93EC0161
:101BE00003C021960E94D10D88818111FACFDF9127
:101BF000CF910895CF93DF93FC0103C00E94D10DD4
:101C0000FE01EF01219684918111F8CFDF91CF91F0
:101C10000895809185019091860108951F920F92F9
:101C20000FB60F9211242F933F934F935F936F93AF
:101C30007F938F939F93AF93BF93CF93EF93FF9334
:101C4000CCB180918701909188010E940F0D811184
:101C500013C060918701709188018C2F0E94200D24
:101C6000E0918701F09188018BB18C7190E0EA5F7F
:101C7000FE4F918380830CC0E0918701F091880131
:101C80008BB18C71816090E0EA5FFE4F918380831D
:101C9000FF91EF91CF91BF91AF919F918F917F91E4
:101CA0006F915F914F913F912F910F900FBE0F90C9
:101CB0001F9018951F920F920FB60F9211242F9319
:101CC0003F934F935F936F937F938F939F93AF93C4
:101CD000BF93EF93FF9380918701909188018D5777
:101CE0009F4F0E94180D81110AC080918701909129
:101CF00088018D579F4F0E943C0D8CB903C08AB15B
:101D00008F7D8AB9FF91EF91BF91AF919F918F9194
:101D10007F916F915F914F913F912F910F900FBEE7
:101D20000F901F9018951F920F920FB60F921124CB
:101D30002F933F934F935F936F937F938F939F93D3
:101D4000AF93BF93CF93EF93FF93C0919C0080918B
:101D50008501909186010E940F0D811114C0609140
:101D60008501709186018C2F0E94200DE0918501E4
:101D7000F091860180919B008C7190E0EA5FFE4FAC
:101D8000918380830DC0E0918501F091860180915F
:101D90009B008C7190E09160EA5FFE4F918380839D
:101DA000FF91EF91CF91BF91AF919F918F917F91D3
:101DB0006F915F914F913F912F910F900FBE0F90B8
:101DC0001F9018951F920F920FB60F9211242F9308
:101DD0003F934F935F936F937F938F939F93AF93B3
:101DE000BF93EF93FF9380918501909186018D576A
:101DF0009F4F0E94180D81110BC080918501909119
:101E000086018D579F4F0E943C0D80939C0005C01A
:101E1000EAE9F0E080818F7D8083FF91EF91BF91AF
:101E2000AF919F918F917F916F915F914F913F9172
:101E30002F910F900FBE0F901F9018950F931F9327
:101E4000CF93FC0191E0C0E014C0803219F41082FD
:101E500091E00EC0992361F0C83090F5AC2FB0E04E
:101E6000AA0FBB1FA15DB94FED93FC93CF5F90E02C
:101E7000319680818111E9CFC11118C081E021C064
:101E800080912F06909130060E949D1B892B59F45A
:101E9000D8011296ED91FC9113976FE276E08C2FAA
:101EA00090E009950EC00A5F1F4F02C000E911E0E3
:101EB000F801608171816115710511F781E001C040
:101EC00082E0CF911F910F910895CF93DF9380E629
:101ED00093E00E94ED0D86E793E00E94ED0DC0E9CE
:101EE000D1E00BC00E94ED0D8C819D810E94ED0D13
:101EF0008FEA93E00E94ED0D2696888199810097E4
:101F000089F780E090E0DF91CF910895FF920F93E1
:101F10001F93CF93DF93CDB7DEB72A970FB6F89410
:101F2000DEBF0FBECDBF02970CF0B3C08FEA93E0C7
:101F30000E94ED0DF12CA6C00F2D10E0C801880FF6
:101F4000991F800F911F880F991F880F991F825723
:101F50009E4F0E94FA0D8BE893E00E94ED0DF80170
:101F6000ED5BFC4F008110E0F801EF56F84FE08187
:101F7000F0E0EE0FFF1FEA5AFC4F808191810E9432
:101F8000ED0DF894000F111FF801E55EF84F61A503
:101F900072A580E090E00E94ED15262F372F482F84
:101FA000592F7894E5E0EF1558F02FE632E143E041
:101FB0005CE30E947B16262F372F482F592F3AC0FB
:101FC000E6E0FE120BC029E539E344E35DE30E943D
:101FD0007B16262F372F482F592F2CC0E0E1FE12F9
:101FE0000BC029E539E344E35DE30E947B16262F0D
:101FF000372F482F592F1EC0EFE0EF1558F02FE074
:1020000030E54EE65BE30E947B16262F372F482FE4
:10201000592F10C0E1E1FE1669F0E2E1FE120AC09C
:1020200029E539E344E35DE30E947B16262F372F31
:10203000482F592F89EF8F0D893018F481E4888754
:1020400002C086E588875F934F933F932F938FE875
:1020500093E09F938F938E010F5F1F4F1F930F93FA
:102060000E94F51BC8010E94ED0D88850E94D10DCC
:102070008FEA93E00E94ED0DF3940FB6F894DEBF63
:102080000FBECDBF92E19F1508F056CF80E090E0E3
:1020900002C082E090E02A960FB6F894DEBF0FBE31
:1020A000CDBFDF91CF911F910F91FF9008951F93A6
:1020B000CF93DF9383309105C4F00497CCF4EB0108
:1020C0008A819B810E949C1A182F8C819D810E947D
:1020D0009C1A193080F4823088F4682F87E0810FD1
:1020E0000E94D20B80E090E00BC083E090E008C03B
:1020F00082E090E005C084E090E002C084E090E0DF
:10210000DF91CF911F9108951F93CF93DF93833079
:102110009105BCF00497C4F4EB018A819B810E9475
:102120009C1A182F8C819D810E949C1A173078F47C
:10213000823080F4682F812F0E94D20B80E090E0E3
:102140000BC083E090E008C082E090E005C084E02E
:1021500090E002C084E090E0DF91CF911F9108955C
:10216000CF93DF9382309105B4F00397BCF4FB0169
:10217000828193810E949C1AD82F823090F4C0E013
:1021800005C06D2F8C2F0E94D20BCF5FC031C8F3DA
:1021900080E090E008C083E090E005C082E090E03D
:1021A00002C084E090E0DF91CF910895CF934CC0BE
:1021B0008091C2069091C3060E943C0DC82F0E94D8
:1021C000D10DCD3011F0CA3029F580914106882318
:1021D000E1F0E82FF0E0EE5BF94F10828F5F809323
:1021E000410682E496E00E941E0F10924106880F7D
:1021F000990BFC01EC54FE4F808191810E94ED0D02
:1022000088E993E00E94ED0D1FC086E993E00E94EB
:10221000ED0D1AC0C83011F0CF3741F4809141065E
:10222000882391F08150809341060EC08091410631
:10223000E82FF0E0EE5BF94FC0838F5F809341069B
:10224000813810F0109241068091C2069091C30629
:102250000E94180D882309F4ABCFCF9108956AE846
:1022600071E089E891E00E949D110895CF93C0E04C
:1022700009C021E4C29FC00111248E589D4F0E94C5
:10228000FA0DCF5FC531A8F38EE30E94D10DCF9137
:1022900008950E94AE0D0E94090E9093C30680938C
:1022A000C20680E8E2E4F6E0DF011D928A95E9F7D4
:1022B000109241068BE993E00E94ED0D82EB93E0D2
:1022C0000E94ED0D0E94361108951092B6091092E9
:1022D000B5091092EF061092C4068AE2E0EFF6E02C
:1022E000DF01982F1D929A95E9F7E5ECF6E0DF0102
:1022F0001D928A95E9F788E0E7EBF9E0DF011D928E
:102300008A95E9F70E94F70C0895823040F4E82F8F
:10231000F0E0EE0FFF1FE954F64F5183408308951C
:10232000E82FF0E0EE0FFF1FE954F64F20813181D6
:1023300081E0232B09F080E00895CF93DF93EC0137
:10234000892B39F16115710531F19091EF069630C5
:1023500020F5292F30E0F901EE0FFF1FDF01A20F5A
:10236000B31FAA0FBB1FA051B94F15967C936E9354
:10237000149711961C92119713961C921E92129705
:10238000FD0181E0808398839F5F9093EF0680E05A
:1023900005C081E003C081E001C081E0DF91CF9101
:1023A0000895CF92DF92EF92FF928091B5099091BC
:1023B000B60901969093B6098093B50980E043C0B1
:1023C000282F30E0F901EE0FFF1FE20FF31FEE0F91
:1023D000FF1FE051F94FA481B5819C91913091F597
:1023E000F901EE0FFF1FE20FF31FEE0FFF1FE05189
:1023F000F94F9081913031F5F901EE0FFF1FE20F97
:10240000F31FEE0FFF1FE051F94F428153814F5FE1
:102410005F4F5383428312966D917C9113974617B9
:10242000570780F0F901EE0FFF1FDF01A20FB31F66
:10243000AA0FBB1FA051B94F13961C921E92129760
:10244000FD0191838F5F9091EF06891708F4B8CF53
:1024500020E047C0822F90E0FC01EE0FFF1FE80F45
:10246000F91FEE0FFF1FEB53F94F30813130C1F5EB
:10247000FC01EE0FFF1FE80FF91FEE0FFF1FEB53DC
:10248000F94F428153814F5F5F4F5383428360E036
:1024900070E0A481B5811196CD90DD90ED90FC9017
:1024A00014974C155D056E057F05D0F0FC01EE0F0D
:1024B000FF1FE80FF91FEE0FFF1FEB53F94F31839A
:1024C000138212824C91423009F030E0FC01EE0F91
:1024D000FF1FE80FF91FEE0FFF1FEB53F94F30837B
:1024E0002F5F8091C406281708F4B4CF80E017C08E
:1024F000282F30E0F901EE0FFF1FE954F64F40811D
:102500005181452B59F0220F331FF901E954F64F41
:102510002081318121503109318320838F5F8230C6
:1025200038F3FF90EF90DF90CF9008950E94EF0C6A
:102530000895CF93C0E032C08C2F90E0FC01EE0FE5
:10254000FF1FE80FF91FEE0FFF1FE051F94F218128
:10255000213019F5FC01EE0FFF1FE80FF91FEE0FF8
:10256000FF1FE051F94F20812130B9F4FC01EE0F3B
:10257000FF1FDF01A80FB91FAA0FBB1FA051B94F42
:1025800011961C921197FD010480F581E02D0480C5
:10259000F581E02D309709F00995CF5F8091EF0626
:1025A000C81750F2C0E026C08C2F90E0FC01EE0F5F
:1025B000FF1FE80FF91FEE0FFF1FEB53F94F2181AB
:1025C0002130B9F4FC01EE0FFF1FDF01A80FB91F86
:1025D000AA0FBB1FAB53B94F11961C921197FD0167
:1025E0000480F581E02D0580F681E02D309709F01B
:1025F0000995CF5F8091C406C817B0F2CF910895B6
:102600001F920F920FB60F9211242F933F934F9367
:102610005F936F937F938F939F93AF93BF93EF934A
:10262000FF930E94D11180911B07823069F4809141
:102630003007882331F0EBE1F7E085898150858B05
:1026400003C086B1806486B920E020C0822F90E06C
:10265000FC01EE0FFF1FE25FFE4F408151814F3FB3
:102660005F4F99F0FC01EE0FFF1FE25FFE4F4081CC
:102670005181452B51F0880F991FFC01E25FFE4FFD
:10268000808191810197918380832F5F2930F0F2BF
:10269000FF91EF91BF91AF919F918F917F916F913A
:1026A0005F914F913F912F910F900FBE0F901F9010
:1026B0001895FB0120C070817927272F22952F7054
:1026C0007227382F2227A72FB0E040E0572F5295CE
:1026D000507FC901842795279D01220F331F229522
:1026E0003295307F3227207F3227822793278A270F
:1026F0009B27462F31966FEF640F4111DCCF089571
:102700008093BB0910921A070895EF92FF920F93DE
:10271000CF93DF93E7013AEC38833091BB093983DB
:102720002A834B830C83F701E058FF4F2FEE208361
:10273000009741F021E0240F2B83FC0180818D83E1
:1027400091E001C090E080E00AC0FB01E80FF11DBC
:102750002081FE01E90FF11D25838F5F9F5F8417A4
:10276000A0F34B814C5FBE016F5F7F4F80E090E034
:102770000E945913C258DF4F99838883DF91CF910C
:102780000F91FF90EF900895EF92FF920F93CF93E8
:10279000DF931F92CDB7DEB78983013031F408E0B3
:1027A000CE0101960E94851305C007E0CE01019677
:1027B0000E9485130F90DF91CF910F91FF90EF90C2
:1027C00008950F931F93CF93DF93DC01FB01EC017E
:1027D000C258DF4F18810981702F612F8C9180833F
:1027E00011968C911197818312968C911297828306
:1027F00013968C911397838314968C9114978483EA
:1028000090E025E03AC0ED01C90FD11D3D813A3C71
:1028100071F4EF01C20FD11D8DEB888381E0820F2F
:10282000EF01C80FD11D2E5F8CED888325C03F3E80
:1028300071F4EF01C20FD11D8DEB888381E0820F0F
:10284000EF01C80FD11D2E5F8EED888315C03D3B73
:1028500071F4EF01C20FD11D8DEB888381E0820FEF
:10286000EF01C80FD11D2E5F8BED888305C0EF01EE
:10287000C20FD11D38832F5F9F5F13968C911397E2
:10288000981708F27A3C79F491E0920FDF01A20FD9
:10289000B11D8DEB8C9382E0820FDF01A90FB11D7A
:1028A0009CED9C9328C07F3E79F491E0920FDF016C
:1028B000A20FB11D8DEB8C9382E0820FDF01A90F77
:1028C000B11D9EED9C9317C07D3B79F491E0920F72
:1028D000DF01A20FB11D8DEB8C9382E0820FDF012F
:1028E000A90FB11D9BED9C9306C081E0820FDF0113
:1028F000A20FB11D0C936A3C79F421E0280FDF018F
:10290000A80FB11D9DEB9C9392E0980FDF01A20FE1
:10291000B11D8CED8C9328C06F3E79F421E0280F17
:10292000DF01A80FB11D9DEB9C9392E0980FDF0192
:10293000A20FB11D8EED8C9317C06D3B79F421E091
:10294000280FDF01A80FB11D9DEB9C9392E0980F1B
:10295000DF01A20FB11D8BED8C9306C091E0980FA3
:10296000DF01A80FB11D1C9381E0890FE90FF11D54
:102970009FEE9083FA018083DF91CF911F910F9199
:102980000895CF93DF93282F80911A078230E9F0C2
:1029900028F4882341F0813089F039C0833011F167
:1029A000843069F134C02A3C09F073C0DB012C93F8
:1029B00090911A079F5F90931A0770C0FB012183C3
:1029C0008F5F80931A0780E069C0DB0112962C9319
:1029D00091E0980F90931A078091BB0928135BC070
:1029E00080E05CC02A3720F010921A0782E056C0BF
:1029F000FB0123838F5F80931A0780E04FC0DB01C8
:102A000014962C938F5F80931A0780E047C0E82FBD
:102A1000F0E0DB0113969C91A92FB0E0AD014B5F74
:102A20005F4FE417F5074CF43597E60FF71F258342
:102A30008F5F80931A0780E031C0E417F50751F4E7
:102A4000FB01E258FF4F108221838F5F80931A07AA
:102A500080E024C01696EA17FB07B9F4FB01E258A0
:102A6000FF4FC081D181C22BD183C08310921A073E
:102A700044E0490F6F5F7F4F80E090E00E94591360
:102A8000C817D90751F481E009C010921A0784E0F1
:102A900005C082E003C083E001C082E0DF91CF91F6
:102AA00008955058BB27AA270E9469150C94411617
:102AB0000E94331638F00E943A1620F039F49F3FF6
:102AC00019F426F40C9430160EF4E095E7FB0C9400
:102AD0002A16E92F0E94521658F3BA176207730795
:102AE0008407950720F079F4A6F50C9474160EF47B
:102AF000E0950B2EBA2FA02D0B01B90190010C010E
:102B0000CA01A0011124FF27591B99F0593F50F425
:102B1000503E68F11A16F040A22F232F342F44277D
:102B2000585FF3CF469537952795A795F040539575
:102B3000C9F77EF41F16BA0B620B730B840BBAF045
:102B40009150A1F0FF0FBB1F661F771F881FC2F7B0
:102B50000EC0BA0F621F731F841F48F487957795C4
:102B60006795B795F7959E3F08F0B0CF9395880F7E
:102B700008F09927EE0F9795879508950E945A16A9
:102B800088F09F5798F0B92F9927B751B0F0E1F02E
:102B9000660F771F881F991F1AF0BA95C9F714C0DE
:102BA000B13091F00E947416B1E008950C9474163F
:102BB000672F782F8827B85F39F0B93FCCF3869517
:102BC00077956795B395D9F73EF490958095709574
:102BD00061957F4F8F4F9F4F0895E89409C097FBF1
:102BE0003EF490958095709561957F4F8F4F9F4FE4
:102BF0009923A9F0F92F96E9BB279395F695879528
:102C000077956795B795F111F8CFFAF4BB0F11F4EA
:102C100060FF1BC06F5F7F4F8F4F9F4F16C0882391
:102C200011F096E911C0772321F09EE8872F762FC7
:102C300005C0662371F096E8862F70E060E02AF008
:102C40009A95660F771F881FDAF7880F96958795F4
:102C500097F9089597F99F6780E870E060E008951C
:102C60009FEF80EC089500240A94161617061806A4
:102C70000906089500240A94121613061406050680
:102C80000895092E0394000C11F4882352F0BB0F11
:102C900040F4BF2B11F460FF04C06F5F7F4F8F4F74
:102CA0009F4F089557FD9058440F551F59F05F3FAF
:102CB00071F04795880F97FB991F61F09F3F79F05E
:102CC00087950895121613061406551FF2CF4695E0
:102CD000F1DF08C0161617061806991FF1CF869562
:102CE0007105610508940895E894BB276627772746
:102CF000CB0197F908950E948E160C9441160E94FC
:102D0000331638F00E943A1620F0952311F00C94F7
:102D10002A160C94301611240C9475160E94521623
:102D200070F3959FC1F3950F50E0551F629FF0011E
:102D3000729FBB27F00DB11D639FAA27F00DB11D37
:102D4000AA1F649F6627B00DA11D661F829F2227C0
:102D5000B00DA11D621F739FB00DA11D621F839F47
:102D6000A00D611D221F749F3327A00D611D231F1D
:102D7000849F600D211D822F762F6A2F11249F576B
:102D800050409AF0F1F088234AF0EE0FFF1FBB1F6E
:102D9000661F771F881F91505040A9F79E3F51052D
:102DA00080F00C942A160C9475165F3FE4F3983E5D
:102DB000D4F3869577956795B795F795E7959F5FD7
:102DC000C1F7FE2B880F911D9695879597F9089569
:102DD000A0E1B0E0EEEEF6E10C94651A7C011B0177
:102DE0006A01FC0117821682838181FF44C39E0120
:102DF0002F5F3F4F3901F7019381F10193FD8591D9
:102E000093FF81911F01882309F431C3853239F47E
:102E100093FD859193FF81911F01853239F4B701AC
:102E200090E00E94B91B56016501E5CF10E0512CDE
:102E3000912CFFE1F915D8F08B3279F038F480321B
:102E400079F08332A1F4F92DF0612EC08D3261F05A
:102E5000803369F4292D21602DC0392D3260932EE5
:102E6000892D8460982E2AC0E92DE86015C097FC52
:102E70002DC020ED280F2A3088F496FE06C03AE0D7
:102E8000139F200D1124122F19C08AE0589E200D87
:102E90001124522EE92DE0629E2E10C08E3231F4A4
:102EA00096FCE5C2F92DF0649F2E08C08C3621F403
:102EB000292D2068922E02C0883641F4F10193FD3D
:102EC000859193FF81911F018111B3CF9BEB980FE7
:102ED000933020F4992D9061805E07C09BE9980F94
:102EE000933008F066C1992D9F7E96FF16E09F7380
:102EF000992E853619F49064992E08C0863621F4EF
:102F0000392F3068932E02C01111115097FE07C05F
:102F10001C3350F444244394410E27E00BC0183076
:102F200038F027E017E005C027E09CE3492E02C0F7
:102F3000212F412C560184E0A80EB11CF6016081BE
:102F4000718182819381042DA3010E94BA1A6C01C0
:102F5000F981FC87F0FF02C0F3FF06C091FC06C0B8
:102F600092FE06C000E205C00DE203C00BE201C004
:102F700000E08C858C7019F001115AC29BC297FE3B
:102F800010C04C0CFC85F4FF04C08A81813309F425
:102F90004A94141474F528E0241578F588E0482E36
:102FA0002CC096FC2AC0812F90E08C159D059CF0CA
:102FB0003CEFC3163FEFD30674F0892D8068982E3E
:102FC0000AC0E2E0F0E0EC0FFD1FE10FF11D80818F
:102FD000803319F411501111F4CF97FE0EC0442420
:102FE0004394410E812F90E0C816D9062CF41C1989
:102FF00004C04424439401C010E097FE06C01C1492
:103000001D0434F4C601019605C085E090E002C0BD
:1030100081E090E001110196112331F0212F30E081
:103020002F5F3F4F820F931F252D30E082179307AC
:1030300014F4581A01C0512C892D897049F4552077
:1030400039F0B70180E290E00E94B91B5A94F7CFA3
:10305000002329F0B701802F90E00E94B91B93FC58
:1030600009C0552039F0B70180E390E00E94B91BF8
:103070005A94F7CF97FE4CC04601D7FE02C0812C70
:10308000912CC60188199909F301E80FF91FFE87F1
:10309000ED87960124193109388B2F87012F10E015
:1030A0001195019511093FEF8316930629F4B70195
:1030B0008EE290E00E94B91BC814D9044CF08F85B1
:1030C00098898815990524F4ED85FE85818101C0D4
:1030D00080E3F1E08F1A91082D853E852F5F3F4FE9
:1030E0003E872D87801691062CF0B70190E00E9454
:1030F000B91BD9CFC814D90441F49A81963320F46E
:10310000953319F43C8534FF81E3B70190E04EC05C
:103110008A81813319F09C859F7E9C87B70190E05E
:103120000E94B91B111105C094FC18C085E690E0FF
:1031300017C0B7018EE290E00E94B91B1E5F82E0CB
:1031400001E0080FF301E80FF11D8081B70190E065
:103150000E94B91B802F0113F3CFE6CF85E490E0E6
:10316000B7010E94B91BD7FC06C0C114D10441F4B9
:10317000EC85E4FF05C0D194C194D1088DE201C073
:103180008BE2B70190E00E94B91B80E32AE0C216EF
:10319000D1042CF08F5FFAE0CF1AD108F7CFB70136
:1031A00090E00E94B91BB701C601C0960E94B91BEE
:1031B00054C1833631F0833779F0833509F056C036
:1031C00020C0560132E0A30EB11CF6018081898334
:1031D00001E010E0630112C05601F2E0AF0EB11C35
:1031E000F601C080D18096FE03C0612F70E002C05E
:1031F0006FEF7FEFC6010E94A61B8C01F92DFF77B0
:1032000014C0560122E0A20EB11CF601C080D1808C
:1032100096FE03C0612F70E002C06FEF7FEFC60122
:103220000E94921B8C01F92DF0689F2EF3FD1AC0AD
:10323000852D90E008171907A8F4B70180E290E007
:103240000E94B91B5A94F4CFF60197FC859197FE22
:1032500081916F01B70190E00E94B91B51105A94FF
:10326000015011090115110579F7F7C0843611F0E5
:10327000893661F5560197FE09C024E0A20EB11C03
:10328000F60160817181828193810AC0F2E0AF0E04
:10329000B11CF60160817181072E000C880B990B1F
:1032A000F92DFF769F2E97FF09C090958095709518
:1032B00061957F4F8F4F9F4FF0689F2E2AE030E03F
:1032C000A3010E94171CC82EC6183FC0092D8537C0
:1032D00021F40F7E2AE030E01DC0097F8F3691F087
:1032E00018F4883559F0C3C0803719F0883711F0C9
:1032F000BEC0006104FF09C0046007C094FE08C09E
:10330000066006C028E030E005C020E130E002C0E1
:1033100020E132E0560107FF09C084E0A80EB11C8D
:10332000F601608171818281938108C0F2E0AF0E65
:10333000B11CF6016081718180E090E0A3010E94E0
:10334000171CC82EC6180F77902E96FE0BC0092D9D
:103350000E7FC11650F494FE0AC092FC08C0092DDD
:103360000E7E05C0DC2C092D03C0DC2C01C0D12E43
:1033700004FF0DC0FE01EC0DF11D8081803311F4BE
:10338000097E09C002FF06C0D394D39404C0802FE5
:10339000867809F0D39403FD11C000FF06C01C2DF0
:1033A000D51480F4150D1D190DC0D51458F4B701AE
:1033B00080E290E00E94B91BD394F7CFD51410F4AB
:1033C0005D1801C0512C04FF10C0B70180E390E0EC
:1033D0000E94B91B02FF17C001FD03C088E790E0FF
:1033E00002C088E590E0B7010CC0802F867859F0C4
:1033F00001FF02C08BE201C080E207FD8DE2B70150
:1034000090E00E94B91BC11638F4B70180E390E048
:103410000E94B91B1150F7CFCA94F301EC0DF11DB6
:103420008081B70190E00E94B91BC110F5CF15C093
:10343000F4E0F51560F584E0581A93FE1FC0011101
:1034400027C02C8523FF2AC00CE810E0392D3071ED
:10345000932EF8018491811124C0552009F4E4CC05
:10346000B70180E290E00E94B91B5A94F6CFF701B1
:103470008681978126C08FEF9FEF23C0B70180E23E
:1034800090E00E94B91B5A945110F8CFD8CF512C1C
:10349000B701802F90E00E94B91BD3CF00E910E064
:1034A000D5CF91108052B70190E00E94B91B0F5FF9
:1034B0001F4FCFCF23E0251510F483E0BDCF512C53
:1034C000C0CF6096E2E10C94811A2F923F924F9206
:1034D0005F926F927F928F929F92AF92BF92CF92A4
:1034E000DF92EF92FF920F931F93CF93DF93CDB7AD
:1034F000DEB7CA1BDB0B0FB6F894DEBF0FBECDBF25
:1035000009942A88398848885F846E847D848C84F5
:103510009B84AA84B984C884DF80EE80FD800C81FE
:103520001B81AA81B981CE0FD11D0FB6F894DEBFE1
:103530000FBECDBFED010895FC0188279927E894BF
:1035400021912032E9F3293010F02E30C8F32B32CC
:1035500041F02D3239F4689404C00E94B11B820FEF
:10356000911D219120532A30C0F31EF4909581952E
:103570009F4F0895283008F027E03327DA01990F8C
:10358000311D87FD916000966105710539F4326047
:103590002E5F3D9330E32A95E1F708959F3F30F089
:1035A00080387105610509F03C5F3C5F3D939130C7
:1035B00008F08068911DDF93CF931F930F93FF92C4
:1035C000EF92192F987F9695E92F96959695E90F8A
:1035D000FF27E251FF4F99273327EE24FF24A7014D
:1035E000E70105900894079428F4360FE71EF81EAB
:1035F000491F511D660F771F881F991F0694A1F759
:103600000590079428F4E70EF81E491F561FC11DA8
:10361000770F881F991F661F0694A1F705900794DE
:1036200028F4F80E491F561FC71FD11D880F991F78
:10363000661F771F0694A1F70590079420F4490FA1
:10364000561FC71FD81F990F661F771F881F069424
:10365000A9F784911095177041F0D695C7955795A5
:103660004795F794E7941A95C1F7E4E9F0E0689478
:103670001590159135916591959105907FE273951F
:10368000E118F10A430B560BC90BD009C0F7E10C46
:10369000F11E431F561FC91FD01D7EF4703311F455
:1036A0008A95E6CFE894015030F0080F0AF400271D
:1036B000021708F4202F2395022F7A3328F079E39C
:1036C0007D932A95E9F710C07D932A9589F6069493
:1036D00097956795379517951794E118F10A430B5D
:1036E000560BC90BD00998F023957E9173957A33C8
:1036F00008F070E37C932013B8F77E9170617D939E
:1037000030F0839571E37D9370E32A95E1F71124FE
:10371000EF90FF900F911F91CF91DF91992787FD37
:1037200090950895FC010590615070400110D8F704
:10373000809590958E0F9F1F0895FB01DC018D9160
:10374000019080190110D9F3990B0895FC01615083
:10375000704001900110D8F7809590958E0F9F1FB3
:1037600008957AE0979F902D879F802D910D1124C9
:1037700008950F931F93CF93DF93FB01238121FDC6
:1037800003C08FEF9FEF2CC022FF16C046815781E8
:10379000248135814217530744F4A081B1819D01F2
:1037A0002F5F3F4F318320838C93268137812F5F9A
:1037B0003F4F3783268314C08B01EC01FB0100844B
:1037C000F185E02D0995892BE1F6D80116968D91AA
:1037D0009C911797019617969C938E931697CE01FE
:1037E000DF91CF911F910F910895AEE0B0E0EBEF24
:1037F000FBE10C94731A0D891E8986E08C831A8371
:1038000009838FEF9FE79E838D83AE01475E5F4FF5
:103810006F89788DCE0101960E94E816EF81F885B8
:10382000E00FF11F10822E96E4E00C948F1AFA013B
:10383000AA27283051F1203181F1E8946F936E7FEF
:103840006E5F7F4F8F4F9F4FAF4FB1E03ED0B4E0E0
:103850003CD0670F781F891F9A1FA11D680F791F21
:103860008A1F911DA11D6A0F711D811D911DA11D32
:1038700020D009F468943F912AE0269F1124301942
:10388000305D3193DEF6CF010895462F4770405DDD
:103890004193B3E00FD0C9F7F6CF462F4F70405D8C
:1038A0004A3318F0495D31FD4052419302D0A9F7E7
:1038B000EACFB4E0A6959795879577956795BA95E1
:1038C000C9F700976105710508959B01AC010A2EA7
:1038D00006945795479537952795BA95C9F7620F7E
:0E38E000731F841F951FA01D0895F894FFCF3D
:1038EE00FF01000A003B09FF0100F401F509E8039E
:1038FE00D007B80BA00F7017581B88137017581BE2
:10390E0060EA60EA60EA60EA60EA60EA60EA60EA59
:10391E0060EACF0AC90A090B050BC50AC10A010BD9
:10392E00FD0AF90AF50ABD0AB90AF10AED0AB50A45
:10393E00B10A330B2D0B420B4C0BE90AE50A190B9E
:10394E00150B110B0D0BD90AD50A290B250B210BC3
:10395E001D0B3D0B390BE10ADD0A470B410BFF0135
:10396E00006400B10CA507AD08FF01000A00D610D7
:10397E00B403860FBD030204650FDD030704571061
:10398E0013044F04841058048D04B01095040000E5
:10399E0000000000C504CA04DC04F4040B05020395
:1039AE0002030302030203020203030203030202E1
:1039BE000252656365697665642073657420636879
:1039CE00616E6E656C20636F6D6D616E640D0A00C5
:1039DE0052656365697665642073657420627563EC
:1039EE006B20636F6D6D616E640D0A0052656365C9
:1039FE00697665642073657420616C6C20636F6DED
:103A0E006D616E640D0A00526563656976656420AA
:103A1E00676574206368616E6E656C20636F6D6D93
:103A2E00616E640D0A005265636569766564206790
:103A3E006574206275636B20636F6D6D616E640DCE
:103A4E000A00526563656976656420676574206156
:103A5E006C6C20636F6D6D616E640D0A0057726F32
:103A6E006E67206D6F64756C6520616472200D0A3F
:103A7E000056494E20495320544F4F20484947483D
:103A8E000D0A005642555320495320544F4F20489B
:103A9E004947480D0A004C4F5353494E472056494B
:103AAE004E0D0A005475726E2000206F6E206C69E8
:103ABE006E6520004F6666005265616479004F7630
:103ACE006572766F6C74616765004F7665726375AB
:103ADE007272656E74004F6E0000010203040405DD
:103AEE00050600010203040608FFFFFFFF0507FF9E
:103AFE00060403010B0E08FFFFFFFF0C0FFF060469
:103B0E0003010B0C0E0F08070502000A0A0D0D111A
:103B1E00030A0209080107000F10040B0C050D0E15
:103B2E00111012070502000A0D11060403010B0CF9
:103B3E000E0F08091012D402D802DE02EA02F602B3
:103B4E000A417661696C61626C6520636F6D6D61AF
:103B5E006E64730D0A002D2D2D2D2D2D2D2D2D2D39
:103B6E002D2D2D2D2D2D2D2D0D0A00203A2000202E
:103B7E0025322E3266000D0A3E2000504455204656
:103B8E0049524D574152452056312E322E30200D7E
:103B9E000A003E0073686F775F616C6C00203A20FC
:103BAE0053686F7720616C6C206368616E6E656C14
:103BBE0020706172616D65746572732000203A2009
:103BCE00446973706C6179206C697374206F662020
:103BDE00636F6D6D616E64732C20666F726D6174B0
:103BEE003A2068656C70007365745F6368616E6E11
:103BFE00656C00203A20536574206368616E6E65B3
:103C0E006C204E204F66662F4F6E2C20666F726DA5
:103C1E0061743A207365745F6368616E6E656C20C3
:103C2E004E20302F3120284E203C20313029007379
:103C3E0065745F6275636B00203A20536574206271
:103C4E0075636B204E204F66662F4F6E2C20666F6D
:103C5E00726D61743A207365745F6275636B204E8A
:103C6E0020302F3120284E203C20372900736574D8
:103C7E005F616C6C00203A205475726E204F666640
:103C8E002F4F6E20616C6C206368616E6E656C2CBC
:103C9E0020666F726D61743A207365745F616C6C2F
:103CAE0020302F31004F4B0D0A00434D444C494EEE
:103CBE00455F4241445F434D440D0A00434D444C21
:103CCE00494E455F544F4F5F4D414E595F415247EC
:103CDE00530D0A00434D444C494E455F544F4F5FC0
:103CEE004645575F415247530D0A00434D444C49D8
:103CFE004E455F494E56414C49445F4152470D0A6D
:023D0E000000B3
:00000001FF
