:100000000C946D030C948A030C948A030C948A0359
:100010000C948A030C948A030C948A030C948A032C
:100020000C948A030C948A030C948A030C948A031C
:100030000C948A030C948A030C948A030C94A30FE7
:100040000C948A030C948A030C9459080C94A50808
:100050000C948A030C9410040C948A030C948A0365
:100060000C948A030C948A030C948A030C948A03DC
:100070000C948A030C948A030C94DE080C942D09CA
:100080000C948A030C948A030C948A032E0C330C70
:10009000330C330C330C330C330C330C330C330C68
:1000A000330CD109D109D109D109D109D109D1091B
:1000B000D109D109D109330C330C330C330C330C77
:1000C000330C330C330C330C330C330C330C330C38
:1000D000330C330C330C330C330C330C330C330C28
:1000E000330C330C330C330C330C330C330C330C18
:1000F000330CDB0A330C330C330C330C330C330C62
:10010000330C330C330C330C0D0A210A330C330C33
:10011000330C330C210A330C330C330C330C330CFB
:10012000330CDB0A330C330C5D0A330CBE0A330C80
:10013000330CDB0A54454331000000005445433280
:100140000000000054454333000000005445433490
:100150000000000043504F4300000000494F55008D
:10016000000000004C45445F524742004C45445F4C
:1001700049520000434D3400000000005241444900
:100180004F0000000D0A0000000000000000000009
:10019000000000000000000000000000000000005F
:1001A000000000000000000000000000000000004F
:1001B000000000000000000000000000000000003F
:1001C00000000000002E2E2E2E2E2E2E2E2E2E2E35
:1001D0002E2E2E2E2E2E2E2E2E2E2E2E2E2E2E2E3F
:1001E0002E2E2E2E2E2E2E2E2E2E2E2E2E2E2E2E2F
:1001F0002E2E2E2E2E2E2E2E2E2E2E2E0D0A0000C0
:100200000000000000002E2E2E2E2E2E2E2E2E2E22
:100210002E2E2E2E2E2E2E2E2E2E2E2E2E2E2E2EFE
:100220002E2E2E2E2E2E2E2E2E2E2E2E2E2E2E2EEE
:100230002E2E2E2E2E2E2E2E2E2E2E2E2E0D0A0051
:10024000000000000000002E2E20202020205F5FF4
:100250005F5F202020202020202020202020202020
:100260002020202020202020205F20202020205F10
:10027000205F202020202020202020202E2E0D0A4C
:1002800000000000000000002E2E202020202F2043
:100290005F5F5F7C205F205F5F2020205F5F205FCB
:1002A00020205F5F5F205F5F5F7C207C2020202814
:1002B0005F7C5F295F205F5F5F202020202E2E0D56
:1002C0000A00000000000000002E2E202020205CEC
:1002D0005F5F5F205C7C20275F205C202F205F60B9
:1002E000207C2F205F5F2F205F205C207C2020203F
:1002F0007C207C207C20275F20205C2020202E2E4C
:100300000D0A00000000000000002E2E20202020FA
:10031000205F5F5F29207C207C5F29207C20285F74
:100320007C207C20285F7C20205F5F2F207C5F5F0B
:100330005F7C207C207C207C207C207C2020202E48
:100340002E0D0A00000000000000002E2E202020AC
:10035000207C5F5F5F5F2F7C202E5F5F2F205C5FC4
:100360005F2C5F7C5C5F5F5F5C5F5F5F7C5F5F5F9C
:100370005F5F7C5F7C5F7C5F7C207C5F7C202020DB
:100380002E2E0D0A00000000000000002E2E20205E
:1003900020202020202020207C5F7C202020205F27
:1003A0005F5F5F20205F5F5F5F20205F2020205F16
:1003B000202020202020202020202020202020203D
:1003C000202E2E0D0A00000000000000002E2E201E
:1003D0002020202020202020202020202020207CC1
:1003E00020205F205C7C20205F205C7C207C207CA7
:1003F000207C2020202020202020202020202020A1
:1004000020202E2E0D0A00000000000000002E2EDD
:1004100020202020202020202020202020202020DC
:100420007C207C5F29207C207C207C207C207C2000
:100430007C207C2020202020202020202020202004
:100440002020202E2E0D0A00000000000000002EAB
:100450002E2020202020202020202020202020208E
:10046000207C20205F5F2F7C207C5F7C207C207C98
:100470005F7C207C20202020202020202020202085
:10048000202020202E2E0D0A000000000000000079
:100490002E2E202020202020202020202020202040
:1004A00020207C5F7C2020207C5F5F5F5F2F205CB2
:1004B0005F5F5F2F20202020202020202020202070
:1004C00020202020202E2E0D0A0000000000000019
:1004D000002E2E2020202020202020202020202020
:1004E000205F5F20202020205F5F5F2020205F5F53
:1004F0005F2020205F5F5F20202020202020202000
:100500002020202020202E2E0D0A000000000000B8
:1005100000002E2E202020202020202020202020FF
:1005200020205C205C2020202F202F207C202F20CA
:100530005F205C202F205F205C20202020202020B6
:10054000202020202020202E2E0D0A000000000058
:100550000000002E2E2020202020202020202020DF
:10056000202020205C205C202F202F7C207C7C20E1
:100570007C207C207C207C207C207C202020202053
:1005800020202020202020202E2E0D0A00000000F8
:10059000000000002E2E20202020202020202020BF
:1005A0002020202020205C2056202F207C207C7CB6
:1005B000207C5F7C207C207C5F7C207C2020202095
:1005C0002020202020202020202E2E0D0A00000098
:1005D00000000000002E2E2020202020202020209F
:1005E00020202020202020205C5F2F20207C5F28DE
:1005F0005F295F5F5F285F295F5F5F2F20202020DA
:10060000202020202020202020202E2E0D0A000037
:100610000000000000002E2E20202020202020207E
:1006200020202020202020202020202020202020CA
:1006300020202020202020202020202020202020BA
:1006400020202020202020202020202E2E0D0A00D7
:10065000000000000000002E2E2E2E2E2E2E2E2EFC
:100660002E2E2E2E2E2E2E2E2E2E2E2E2E2E2E2EAA
:100670002E2E2E2E2E2E2E2E2E2E2E2E2E2E2E2E9A
:100680002E2E2E2E2E2E2E2E2E2E2E2E2E2E0D0ACF
:1006900000000000000000002E2E2E2E2E2E2E2EEA
:1006A0002E2E2E2E2E2E2E2E2E2E2E2E2E2E2E2E6A
:1006B0002E2E2E2E2E2E2E2E2E2E2E2E2E2E2E2E5A
:1006C0002E2E2E2E2E2E2E2E2E2E2E2E2E2E2E0D6B
:1006D0000A00000000000000000011241FBECFEF40
:1006E000D0E1DEBFCDBF13E0A0E0B1E0E6E4F6E28A
:1006F00002C005900D92AC3CB107D9F726E0ACECF6
:10070000B3E001C01D92AE32B207E1F70E94860548
:100710000C9421130C940000843148F4E82FF0E08D
:100720007E96EE0FFF1FEE55FB4F71836083089599
:10073000F89487E886B983E487B986B1886086B97A
:1007400082E08093A20480E006C0E82FF0E0EE553E
:10075000FB4F11828F5F8331C0F368E073E080E06C
:100760000E948C0368E073E081E00E948C0368E0E3
:1007700073E082E00E948C0368E073E083E00E94F3
:100780008C0368E073E084E00E948C0368E073E00F
:1007900085E00E948C0368E073E086E00E948C0391
:1007A00068E073E087E00E948C036AE471E088E00F
:1007B0000E948C036AE471E089E00E948C0368E087
:1007C00073E08AE00E948C036AE471E08BE00E948F
:1007D0008C036AE471E08CE00E948C0368E073E0B3
:1007E0008DE00E948C036AE471E08EE00E948C032D
:1007F0006AE471E08FE00E948C036CE771E080E1B5
:100800000E948C0364E571E081E10E948C0368E939
:1008100073E082E10E948C030E9491047894089511
:100820001F920F920FB60F9211241F932F933F9395
:100830004F935F936F937F938F939F93AF93BF93E8
:10084000CF93DF93EF93FF931091B604C12FD0E0C5
:10085000FE017E96EE0FFF1FEE55FB4F208131818A
:1008600084B195B12817390760F4FE01ED56FE4FAB
:100870008081FE01EE55FB4F8183CE010E94FF0671
:1008800005C081E0FE01EE55FB4F818384B195B137
:100890002B96CC0FDD1FCE55DB4F99838883C1E0AB
:1008A000C10FC0930405C33150F083E487B980E0E1
:1008B0000E94B40485E08093A204C0E019C0C03156
:1008C00030F48C2F0E94B40483E487B90EC0C03189
:1008D00019F480E487B909C0C13119F481E487B9FA
:1008E00004C0C23111F482E487B982E08093A2048B
:1008F000E2EAF4E0C48B82E0858BFF91EF91DF9117
:10090000CF91BF91AF919F918F917F916F915F91A7
:100910004F913F912F911F910F900FBE0F901F90FD
:10092000189582B1846082B982B1886082B982B13F
:10093000806282B982B1806182B9E1E6F0E08081B3
:10094000877F808383B18B7F83B983B1877F83B9AE
:1009500083B18F7D83B983B18F7E83B9E2E6F0E006
:100960008081877F8083089580FF04C093B1946065
:1009700093B903C093B19B7F93B981FF04C093B136
:10098000986093B903C093B1977F93B982FF04C075
:1009900093B1906293B903C093B19F7D93B983FFE4
:1009A00004C083B1806183B9089583B18F7E83B918
:1009B000089582B3806482BB089582B38F7B82BB2B
:1009C000089582B3806882BB089582B38F7782BB1B
:1009D00008958091CC03982F917080FF16C080E01D
:1009E0000E94330E8823C9F18091CC038E7F8093BF
:1009F000CC030E94D9040E94E10448EE53E060E079
:100A000070E080E00E94280E0895911116C080E0E9
:100A10000E94330E882309F18091CC03816080937A
:100A2000CC030E94DD040E94E50448EE53E060E040
:100A300070E080E00E94280E08958091CC038E7FA4
:100A40008093CC030E94D9040E94E10448EE53E055
:100A500060E070E080E00E94280E08958091CC0351
:100A6000982F917080FF14C080E00E94330E88237D
:100A700021F18091CC038E7F8093CC030E94D90416
:100A800048EB5BE060E070E080E00E94280E089593
:100A9000992399F080E00E94330E882371F08091B1
:100AA000CC0381608093CC030E94DD0444EF51E0CD
:100AB00060E070E080E00E94280E08958091CC03F1
:100AC0008695869519F0813021F008950E94E904F9
:100AD00008950E942E05089581B3806481BB82B37E
:100AE0008F7B82BB81B3806881BB82B38F7782BBEF
:100AF0001092CC030E94D9040E94E104089561E0A1
:100B000071E080E091E00E94400E08950E946C0523
:100B10000E94CB070E94EC0D0E94E7070E94080E7E
:100B20000E947F050E94D20D0E9498030E944C07EC
:100B30000E9458060E94390F0E943C0F8091A20427
:100B4000853019F482E08093A2048091CD0388233C
:100B500099F386EA91E09F938F930E94530C109231
:100B6000CD030F900F90E8CF8BB381608BBB0895BE
:100B70008BB38E7F8BBB08958BB388608BBB08953E
:100B80008BB3877F8BBB08958BB380628BBB08953B
:100B90008BB38F7D8BBB0895E5E6F0E080818460A8
:100BA00080830895E5E6F0E080818B7F808308955F
:100BB00085B3806185BB089585B38F7E85BB08951D
:100BC00085B3816085BB089585B38E7F85BB08950D
:100BD00085B3886085BB089585B3877F85BB0895FD
:100BE0008BB382608BBB08958BB38D7F8BBB0895D5
:100BF0008BB384608BBB08958BB38B7F8BBB0895C5
:100C00008BB380618BBB08958BB38F7E8BBB0895B4
:100C10008BB380648BBB08958BB38F7B8BBB0895A4
:100C200085B3806485BB089585B38F7B85BB0895AC
:100C300085B3806285BB089585B38F7D85BB08959C
:100C40008BB380688BBB08958BB38F778BBB089574
:100C500085B3806885BB089585B38F7785BB08957C
:100C6000E5E6F0E08081816080830895E5E6F0E0CC
:100C700080818E7F80830895E5E6F0E08081826048
:100C800080830895E5E6F0E080818D7F808308957C
:100C900088B3806488BB089588B38F7B88BB089530
:100CA00088B3806888BB089588B38F7788BB089520
:100CB00088B38F7B88BB88B38F7788BB87B380640A
:100CC00087BB87B3806887BB8BB38E7F8BBB8BB3AF
:100CD000877F8BBB8BB38F7D8BBBE5E6F0E080819C
:100CE0008B7F808385B38F7E85BB85B38E7F85BBED
:100CF00085B3877F85BB8BB38D7F8BBB8BB38B7F9E
:100D00008BBB8BB38F7E8BBB8BB38F7B8BBB85B346
:100D10008F7B85BB85B38F7D85BB8BB38F778BBB7B
:100D200085B38F7785BB80818D7F808380818E7F27
:100D300080838AB381608ABB8AB388608ABB8AB3A6
:100D400080628ABBE4E6F0E080818460808384B3C3
:100D5000806184BB84B3816084BB84B3886084BBBE
:100D60008AB382608ABB8AB384608ABB8AB380619B
:100D70008ABB8AB380648ABB84B3806484BB84B337
:100D8000806284BB8AB380688ABB84B3806884BB7A
:100D900080818260808380818160808380E006C062
:100DA000E82FF0E0EB5FFA4F10828F5F8331C0F3E2
:100DB0000895833110F5662339F0E82FF0E0EB5FFA
:100DC000FA4F94E0908305C0E82FF0E0EB5FFA4F14
:100DD0001082E82FF0E0E754FE4FE081F0E0EE0FE4
:100DE000FF1FE60FF11DEE0FFF1FE95FFE4F0190A1
:100DF000F081E02D099581E0089580E00895833128
:100E000008F590E0FC01EB5FFA4F2081243021F4DB
:100E1000FC01ED56FE4F208131E03093CD03FC0103
:100E2000EB5FFA4F2083FC01E754FE4FE081F0E0D6
:100E3000EE0FFF1FEE0FFF1FE95FFE4F0190F081E5
:100E4000E02D099508958091CE03882391F081E0EB
:100E50000E94330E8823F9F01092CE0383B18F7B6A
:100E600083B948EE53E060E070E081E00E94280E14
:100E7000089581E00E94330E882369F081E0809319
:100E8000CE0383B1806483B948EC50E060E070E049
:100E900081E00E94280E089582B1806482B982B1F7
:100EA0008F7782B983B18F7B83B983B18F7783B911
:100EB0001092CE0364E571E083E591E00E94400E5C
:100EC000089583B7846083BF87B7826087BF7894B3
:100ED000089583B7886083BF12BE8CE781BF0895F1
:100EE0003FB7F89421E009C0FC01E05CFF4F10829D
:100EF000319610823196108220E02111F5CF3FBF4C
:100F000008958E5B9F4FFC01908181E0903409F041
:100F100080E008958E5B9F4FFC01908181E09111EC
:100F200080E00895FB01E05CFF4F9081FB01E90F39
:100F3000F11D80839FB7F89481E00CC0FB01E05C59
:100F4000FF4F80818F5F8F738083329680818F5FA8
:100F5000808380E08111F2CF9FBF08959C01FC0146
:100F6000EF5BFF4F8081F901E80FF11D80814FB7E2
:100F7000F89491E00CC0F901EF5BFF4F90819F5F07
:100F80009F739083319690819150908390E091115E
:100F9000F2CF4FBF089580915C0190915D018D5B10
:100FA0009F4F0E94700780915C0190915D010E94AB
:100FB00070071092900083E389B98AB188698AB971
:100FC000E5E9F0E0808186608083789408958091DF
:100FD0005A0190915B018D5B9F4F0E947007809139
:100FE0005A0190915B010E9470071092980083E370
:100FF00080939900EAE9F0E0808188698083EDE9D7
:10100000F0E08081866080830895CF93C82F80911F
:101010005A0190915B018D5B9F4F0E948107811166
:10102000F6CF60915A0170915B016D5B7F4F8C2F01
:101030000E949207EAE9F0E0808180628083CF918C
:101040000895CF93DF93EC0103C021960E94050819
:1010500088818111FACFDF91CF9108950F931F936B
:10106000CF93DF93FC01D62FC0E008C08F010F5F44
:101070001F4F80810E940508CF5FF801CD17B0F3A4
:10108000DF91CF911F910F910895CF93DF93FC01D2
:1010900003C00E940508FE01EF0121968491811191
:1010A000F8CFDF91CF91089580915A0190915B0123
:1010B00008951F920F920FB60F9211242F933F9312
:1010C0004F935F936F937F938F939F93AF93BF9350
:1010D000CF93EF93FF93CCB180915C0190915D0130
:1010E0000E948107811113C060915C0170915D01C4
:1010F0008C2F0E949207E0915C01F0915D018BB111
:101100008C7190E0EA57FF4F918380830CC0E0918F
:101110005C01F0915D018BB18C71816090E0EA57C8
:10112000FF4F91838083FF91EF91CF91BF91AF915A
:101130009F918F917F916F915F914F913F912F91EF
:101140000F900FBE0F901F9018951F920F920FB621
:101150000F9211242F933F934F935F936F937F933D
:101160008F939F93AF93BF93EF93FF9380915C0115
:1011700090915D018D5B9F4F0E948A0781110AC08B
:1011800080915C0190915D018D5B9F4F0E94AE0745
:101190008CB903C08AB18F7D8AB9FF91EF91BF915D
:1011A000AF919F918F917F916F915F914F913F91FF
:1011B0002F910F900FBE0F901F9018951F920F92B6
:1011C0000FB60F9211242F933F934F935F936F931A
:1011D0007F938F939F93AF93BF93CF93EF93FF939F
:1011E000C0919C0080915A0190915B010E948107FF
:1011F000811114C060915A0170915B018C2F0E9483
:101200009207E0915A01F0915B0180919B008C71F3
:1012100090E0EA57FF4F918380830DC0E0915A011F
:10122000F0915B0180919B008C7190E09160EA5796
:10123000FF4F91838083FF91EF91CF91BF91AF9149
:101240009F918F917F916F915F914F913F912F91DE
:101250000F900FBE0F901F9018951F920F920FB610
:101260000F9211242F933F934F935F936F937F932C
:101270008F939F93AF93BF93EF93FF9380915A0106
:1012800090915B018D5B9F4F0E948A0781110BC07B
:1012900080915A0190915B018D5B9F4F0E94AE0738
:1012A00080939C0005C0EAE9F0E080818F7D808317
:1012B000FF91EF91BF91AF919F918F917F916F912E
:1012C0005F914F913F912F910F900FBE0F901F9004
:1012D00018954F925F926F927F928F929F92AF92EA
:1012E000BF92EF92FF920F931F93CF93DF93CDB7EF
:1012F000DEB7A8970FB6F894DEBF0FBECDBF8C0146
:101300007B01B8C219821A821B821C820BC08981A0
:101310009A81AB81BC810196A11DB11D89839A83FD
:10132000AB83BC8389819A81AB81BC81F801E80FD2
:10133000F91F8081853251F089819A81AB81BC810E
:10134000F801E80FF91F80818111E1CF69817A816D
:101350008B819C81C8010E942E0889819A81AB8172
:10136000BC81080F191FF8018081853209F082C203
:10137000D80111961D861E861F86188A6894BB2484
:10138000B5F88D010F5F1F4F8C91482F50E0FA0187
:10139000B597E435F10508F066C2EA5BFF4F0C949F
:1013A0000A10803361F44D855E856F857889452B01
:1013B000462B472B21F40F2EF0E3BF2EF02D4D8549
:1013C0005E856F857889440F551F661F771F2A0138
:1013D0003B01440C551C661C771C440C551C661CB8
:1013E000771C440D551D661D771D4D875E876F87E1
:1013F000788B90E0C0974D855E856F857889092E42
:10140000000CAA0BBB0B840F951FA61FB71F8D875F
:101410009E87AF87B88BD801B4CF5701F4E0AF0EE9
:10142000B11CF70180819181A281B3818D839E835C
:10143000AF83B88761E0CE0105960E942E08750142
:1014400019C297012E5F3F4FF70180819181A0E083
:10145000B0E08D839E83AF83B88719861A861B867A
:101460001C868D819E81AF81B885BB23C4F48D819C
:101470009E81AF81B885B095A095909581959F4F3D
:10148000AF4FBF4F8D839E83AF83B88781E090E0DD
:10149000A0E0B0E08D8B9E8BAF8BB88F04C01D8A0F
:1014A0001E8A1F8A188E8AE090E0A0E0B0E0898B47
:1014B0009A8BAB8BBC8B79019AC05701F2E0AF0ECF
:1014C000B11CF7018081918119821A821B821C82D2
:1014D0000CC049815A816B817C814F5F5F4F6F4F98
:1014E0007F4F49835A836B837C8349815A816B8107
:1014F0007C81FC01E40FF51F20812111EACF498195
:101500005A816B817C81642F0E942E084D855E85F7
:101510006F85788989819A81AB81BC818417950711
:10152000A607B70708F0A5C149815A816B817C8164
:101530008D859E85AF85B889841B950BA60BB70B4F
:101540008D879E87AF87B88B05C061E08EE392E000
:101550000E942E088D859E85AF85B889AC01BD019E
:1015600041505109610971094D875E876F87788BFA
:10157000892B8A2B8B2B49F775017CC1F701808160
:101580009181A0E0B0E08D839E83AF83B8871986F8
:101590001A861B861C868AE090E0A0E0B0E0898B6A
:1015A0009A8BAB8BBC8B1D8A1E8A1F8A188EC70133
:1015B00002967C011CC0F70180819181A0E0B0E01F
:1015C0008D839E83AF83B88719861A861B861C86F7
:1015D00080E190E0A0E0B0E0898B9A8BAB8BBC8B74
:1015E0001D8A1E8A1F8A188EC70102967C0181E01F
:1015F00090E0A0E0B0E089839A83AB83BC8319C0FC
:1016000029893A894B895C8969817A818B819C819E
:101610000E94D80F69837A838B839C838D859E85F6
:10162000AF85B8890197A109B1098D879E87AF87DA
:10163000B88B29813A814B815C8169897A898B8950
:101640009C890E94D80F4D805E806F8078844616FA
:10165000570668067906D0F029813A814B815C8172
:1016600069897A898B899C890E94D80F29893A894E
:101670004B895C890E94E80F89819A81AB81BC818A
:10168000281739074A075B0709F4BACF8D899E8965
:10169000AF89B88D892B8A2B8B2B59F08D859E8530
:1016A000AF85B8890197A109B1098D879E87AF875A
:1016B000B88B8D899E89AF89B88D892B8A2B8B2B0E
:1016C000E9F090E3B9121AC089859A85AB85BC858B
:1016D000AC01BD014F5F5F4F6F4F7F4F49875A8706
:1016E0006B877C87E9E1F0E0EC0FFD1FE80FF91F45
:1016F0002DE220831D8A1E8A1F8A188E8D859E8565
:10170000AF85B8890297A105B105E0F18D859E8569
:10171000AF85B8894097A105B105A0F58D859E8557
:10172000AF85B8890197A109B1098D879E87AF87D9
:10173000B88B20C089859A85AB85BC85AC01BD017D
:101740004F5F5F4F6F4F7F4F49875A876B877C870B
:10175000E9E1F0E0EC0FFD1FE80FF91FB0828D8585
:101760009E85AF85B8890197A109B1098D879E87AC
:10177000AF87B88B8D859E85AF85B889892B8A2BDD
:101780008B2BC1F68D899E89AF89B88D892B8A2BC9
:101790008B2B09F451C089859A85AB85BC85AC013A
:1017A000BD014F5F5F4F6F4F7F4F49875A876B87F0
:1017B0007C87E9E1F0E0EC0FFD1FE80FF91F2DE257
:1017C00020833AC089849A84AB84BC84D501C40147
:1017D0000196A11DB11D89879A87AB87BC876D8152
:1017E0007E818F81988529813A814B815C810E941D
:1017F000E80F49885A886B887C88CA01B901A3011F
:1018000092010E94E80FFB01E550FE4F8081E9E163
:10181000F0E0EC0FFD1FE80DF91D808329893A895E
:101820004B895C8969817A818B819C810E94E80F58
:1018300029833A834B835C8389819A81AB81BC8104
:10184000892B8A2B8B2B09F0BDCF69857A858B85F7
:101850009C85CE0149960E942E080CC061E0CD0106
:101860000E942E0807C065E08CE092E00E942E08DE
:1018700001C07501F8018081811144CDA8960FB691
:10188000F894DEBF0FBECDBFDF91CF911F910F91B6
:10189000FF90EF90BF90AF909F908F907F906F9050
:1018A0005F904F900895CF93DF93CDB7DEB7BE0121
:1018B0006B5F7F4FFB0181919191BF010E9469098C
:1018C000DF91CF9108950F931F93CF93FC0191E087
:1018D000C0E014C0803219F4108291E00EC0992348
:1018E00061F0C83090F5AC2FB0E0AA0FBB1FA15338
:1018F000BC4FED93FC93CF5F90E0319680818111D6
:10190000E9CFC11118C081E021C08091CF0390912F
:10191000D0030E944810892B59F4D8011296ED91FA
:10192000FC9113976FEC73E08C2F90E009950EC03B
:101930000A5F1F4F02C005E611E0F8016081718166
:101940006115710511F781E001C082E0CF911F910F
:101950000F910895CF93DF9382E192E00E942108D6
:1019600088E292E00E942108C5E6D1E00BC00E9407
:1019700021088C819D810E94210889E592E00E94C6
:101980002108269688819981009789F780E090E068
:10199000DF91CF9108951F93CF93DF9310E022C082
:1019A000C12FD0E0CE01880F991F880F991F880F93
:1019B000991F8C5C9E4F0E9445088DE392E00E9427
:1019C0002108C45FDA4FE881F0E0EE0FFF1FEF500F
:1019D000FE4F808191810E94210889E592E00E945A
:1019E00021081F5F1A30E0F280E090E0DF91CF9194
:1019F0001F9108951F93CF93DF9383309105C4F017
:101A00000497CCF4EB018A819B810E942A10182F45
:101A10008C819D810E942A101A3080F4823088F4D3
:101A2000682F87E0810F0E94D90680E090E00BC00C
:101A300083E090E008C082E090E005C084E090E0A0
:101A400002C084E090E0DF91CF911F9108951F9331
:101A5000CF93DF9383309105BCF00497C4F4EB017E
:101A60008A819B810E942A10182F8C819D810E945F
:101A70002A10173078F4823080F4682F812F0E946A
:101A8000D90680E090E00BC083E090E008C082E0DF
:101A900090E005C084E090E002C084E090E0DF9137
:101AA000CF911F910895CF93DF9382309105B4F0C9
:101AB0000397BCF4FB01828193810E942A10D82FE6
:101AC000823090F4C0E005C06D2F8C2F0E94D906A3
:101AD000CF5FC131C8F380E090E008C083E090E0C0
:101AE00005C082E090E002C084E090E0DF91CF91F9
:101AF0000895CF934CC080916204909163040E943A
:101B0000AE07C82F0E940508CD3011F0CA3029F564
:101B10008091E1038823E1F0E82FF0E0EE51FC4FE3
:101B200010828F5F8093E10382EE93E00E94630C4A
:101B30001092E103880F990BFC01E757FE4F80815B
:101B400091810E94210882E492E00E9421081FC036
:101B500080E492E00E9421081AC0C83011F0CF370B
:101B600041F48091E103882391F081508093E10357
:101B70000EC08091E103E82FF0E0EE51FC4FC083EE
:101B80008F5F8093E103813810F01092E103809120
:101B90006204909163040E948A07882309F4ABCF02
:101BA000CF9108956FE571E08EE591E00E94400EBF
:101BB0000895CF93C0E009C021E4C29FC001112461
:101BC0008C579E4F0E944508CF5FC531A8F38EE326
:101BD0000E940508CF9108950E94E7070E945408CB
:101BE000909363048093620480E8E2EEF3E0DF0107
:101BF0001D928A95E9F71092E10385E492E00E9434
:101C000021088CE592E00E9421080E94D90D0895D8
:101C100010922906109228061092830410926404F0
:101C20008EE1E4E8F4E0DF01982F1D929A95E9F740
:101C3000E5E6F4E0DF011D928A95E9F788E0EAE243
:101C4000F6E0DF011D928A95E9F70E946907089581
:101C5000823040F4E82FF0E0EE0FFF1FE65DF94F11
:101C6000518340830895E82FF0E0EE0FFF1FE65DFB
:101C7000F94F2081318181E0232B09F080E0089524
:101C8000CF93DF93EC01892B39F16115710531F1A7
:101C900090918304943020F5292F30E0F901EE0F64
:101CA000FF1FDF01A20FB31FAA0FBB1FAC57BB4F13
:101CB00015967C936E93149711961C921197139618
:101CC0001C921E921297FD0181E0808398839F5F92
:101CD0009093830480E005C081E003C081E001C0EF
:101CE00081E0DF91CF910895CF92DF92EF92FF9242
:101CF0008091280690912906019690932906809359
:101D0000280680E043C0282F30E0F901EE0FFF1FC6
:101D1000E20FF31FEE0FFF1FEC57FB4FA481B581BD
:101D20009C91913091F5F901EE0FFF1FE20FF31F27
:101D3000EE0FFF1FEC57FB4F9081913031F5F90109
:101D4000EE0FFF1FE20FF31FEE0FFF1FEC57FB4FCD
:101D5000428153814F5F5F4F5383428312966D914F
:101D60007C9113974617570780F0F901EE0FFF1F7C
:101D7000DF01A20FB31FAA0FBB1FAC57BB4F1396B7
:101D80001C921E921297FD0191838F5F90918304A4
:101D9000891708F4B8CF20E047C0822F90E0FC01FB
:101DA000EE0FFF1FE80FF91FEE0FFF1FEB59FB4F60
:101DB00030813130C1F5FC01EE0FFF1FE80FF91F34
:101DC000EE0FFF1FEB59FB4F428153814F5F5F4F77
:101DD0005383428360E070E0A481B5811196CD9079
:101DE000DD90ED90FC9014974C155D056E057F0518
:101DF000D0F0FC01EE0FFF1FE80FF91FEE0FFF1FE1
:101E0000EB59FB4F3183138212824C91423009F01F
:101E100030E0FC01EE0FFF1FE80FF91FEE0FFF1F70
:101E2000EB59FB4F30832F5F80916404281708F42F
:101E3000B4CF80E017C0282F30E0F901EE0FFF1F6C
:101E4000E65DF94F40815181452B59F0220F331F38
:101E5000F901E65DF94F208131812150310931834B
:101E600020838F5F823038F3FF90EF90DF90CF9028
:101E700008950E9461070895CF93C0E032C08C2F6F
:101E800090E0FC01EE0FFF1FE80FF91FEE0FFF1FA0
:101E9000EC57FB4F2181213019F5FC01EE0FFF1F9C
:101EA000E80FF91FEE0FFF1FEC57FB4F2081213089
:101EB000B9F4FC01EE0FFF1FDF01A80FB91FAA0F35
:101EC000BB1FAC57BB4F11961C921197FD010480AC
:101ED000F581E02D0480F581E02D309709F009951A
:101EE000CF5F80918304C81750F2C0E026C08C2FCA
:101EF00090E0FC01EE0FFF1FE80FF91FEE0FFF1F30
:101F0000EB59FB4F21812130B9F4FC01EE0FFF1F8B
:101F1000DF01A80FB91FAA0FBB1FAB59BB4F11960A
:101F20001C921197FD010480F581E02D0580F6815A
:101F3000E02D309709F00995CF5F80916404C817B0
:101F4000B0F2CF9108951F920F920FB60F92112405
:101F50002F933F934F935F936F937F938F939F93B1
:101F6000AF93BF93EF93FF930E94740E8091A204EE
:101F7000823069F48091B704882331F0E2EAF4E01A
:101F800085898150858B03C086B1806486B9FF91B5
:101F9000EF91BF91AF919F918F917F916F915F91E1
:101FA0004F913F912F910F900FBE0F901F9018955A
:101FB000DB018F939F930E941010BF91AF91A29F5E
:101FC000800D911DA39F900DB29F900D1124089537
:101FD000A1E21A2EAA1BBB1BFD010DC0AA1FBB1F2D
:101FE000EE1FFF1FA217B307E407F50720F0A21B9F
:101FF000B30BE40BF50B661F771F881F991F1A940C
:1020000069F760957095809590959B01AC01BD0135
:10201000CF010895EE0FFF1F0590F491E02D099474
:102020000E941B10A59F900DB49F900DA49F800D42
:10203000911D11240895A29FB001B39FC001A39FD9
:10204000700D811D1124911DB29F700D811D1124F1
:10205000911D0895FC0188279927E8942191203249
:10206000E9F3293010F02E30C8F32B3241F02D3235
:1020700039F4689404C00E945110820F911D21917F
:1020800020532A30C0F31EF4909581959F4F0895F8
:10209000FB01DC018D91019080190110D9F3990B9E
:1020A00008957AE0979F902D879F802D910D1124A0
:1020B0000895ABE0B0E0EFE5F0E10C94EA126C01BA
:1020C0007B018A01FC0117821682838181FFCCC1CA
:1020D000CE0101963C01F6019381F70193FD8591B4
:1020E00093FF81917F01882309F4BAC1853239F4C5
:1020F00093FD859193FF81917F01853229F4B6018B
:1021000090E00E945012E7CF912C212C312CFFE15E
:10211000F315D8F08B3279F038F4803279F08332CD
:10212000A1F4232D20611DC08D3261F0803369F44C
:10213000232D216016C0832D8260382EE32DE460AC
:102140003E2E2AC0F32DF8601DC037FC2DC020EDB7
:10215000280F2A3040F08E32B9F436FC81C1232D8D
:102160002064322E19C036FE06C08AE0989E200DEB
:102170001124922E11C0EAE02E9E200D1124222E51
:10218000F32DF0623F2E08C08C3621F4832D806839
:10219000382E02C0883641F4F70193FD859193FFF4
:1021A00081917F018111B3CF982F9F7D95549330FA
:1021B00028F40C5F1F4F9FE399830DC0833631F0E5
:1021C000833771F0833509F059C021C0F80180814F
:1021D00089830E5F1F4F88248394912C530113C071
:1021E0002801F2E04F0E511CF801A080B18036FEAC
:1021F00003C0692D70E002C06FEF7FEFC5010E9440
:1022000045124C018201F32DFF773F2E16C02801A5
:1022100022E0420E511CF801A080B18036FE03C0BE
:10222000692D70E002C06FEF7FEFC5010E943A1286
:102230004C01F32DF0683F2E820133FC1BC0822D30
:1022400090E088169906B0F4B60180E290E00E9412
:1022500050122A94F4CFF50137FC859137FE819115
:102260005F01B60190E00E94501221102A9421E0F3
:10227000821A91088114910471F7E8C0843611F034
:10228000893641F5F80137FE07C06081718182818E
:1022900093810C5F1F4F08C060817181072E000C75
:1022A000880B990B0E5F1F4FF32DFF763F2E97FF84
:1022B00009C090958095709561957F4F8F4F9F4F86
:1022C000F0683F2E2AE030E0A3010E948C12882E95
:1022D000861845C0853731F4232D2F7EB22E2AE093
:1022E00030E025C0932D997FB92E8F36C1F018F4B8
:1022F000883579F0B5C0803719F0883721F0B0C043
:10230000E92FE061BE2EB4FE0DC0FB2DF460BF2EA0
:1023100009C034FE0AC0292F2660B22E06C028E06C
:1023200030E005C020E130E002C020E132E0F801F9
:10233000B7FE07C060817181828193810C5F1F4F5E
:1023400006C06081718180E090E00E5F1F4FA301A5
:102350000E948C12882E8618FB2DFF773F2E36FEAA
:102360000DC0232D2E7FA22E891458F434FE0BC0ED
:1023700032FC09C0832D8E7EA82E05C0B82CA32C5C
:1023800003C0B82C01C0B92CA4FE0FC0FE01E80D9B
:10239000F11D8081803321F49A2D997EA92E09C0E8
:1023A000A2FE06C0B394B39404C08A2D867809F0C7
:1023B000B394A3FC11C0A0FE06C0B21488F4280C8C
:1023C000922C9B180EC0B21460F4B60180E290E02B
:1023D0000E945012B394F7CFB21418F42B1802C015
:1023E000982C212CA4FE10C0B60180E390E00E943E
:1023F0005012A2FE17C0A1FC03C088E790E002C003
:1024000088E590E0B6010CC08A2D867859F0A1FECF
:1024100002C08BE201C080E2A7FC8DE2B60190E031
:102420000E945012891438F4B60180E390E00E94B3
:1024300050129A94F7CF8A94F301E80DF11D808130
:10244000B60190E00E9450128110F5CF222009F4CD
:1024500042CEB60180E290E00E9450122A94F6CF5C
:10246000F6018681978102C08FEF9FEF2B96E2E104
:102470000C940613FC010590615070400110D8F7D0
:10248000809590958E0F9F1F0895FC0161507040BC
:1024900001900110D8F7809590958E0F9F1F089599
:1024A0000F931F93CF93DF93FB01238121FD03C083
:1024B0008FEF9FEF2CC022FF16C0468157812481E9
:1024C00035814217530744F4A081B1819D012F5FEC
:1024D0003F4F318320838C93268137812F5F3F4F7D
:1024E0003783268314C08B01EC01FB010084F18546
:1024F000E02D0995892BE1F6D80116968D919C91D6
:102500001797019617969C938E931697CE01DF919D
:10251000CF911F910F910895FA01AA27283051F108
:10252000203181F1E8946F936E7F6E5F7F4F8F4F04
:102530009F4FAF4FB1E03ED0B4E03CD0670F781F63
:10254000891F9A1FA11D680F791F8A1F911DA11D48
:102550006A0F711D811D911DA11D20D009F4689481
:102560003F912AE0269F11243019305D3193DEF629
:10257000CF010895462F4770405D4193B3E00FD0DF
:10258000C9F7F6CF462F4F70405D4A3318F0495DCA
:1025900031FD4052419302D0A9F7EACFB4E0A695AD
:1025A0009795879577956795BA95C9F700976105CF
:1025B000710508959B01AC010A2E06945795479525
:1025C00037952795BA95C9F7620F731F841F951F1A
:1025D000A01D08952F923F924F925F926F927F922B
:1025E0008F929F92AF92BF92CF92DF92EF92FF9223
:1025F0000F931F93CF93DF93CDB7DEB7CA1BDB0BCF
:102600000FB6F894DEBF0FBECDBF09942A88398873
:1026100048885F846E847D848C849B84AA84B9847A
:10262000C884DF80EE80FD800C811B81AA81B98186
:10263000CE0FD11D0FB6F894DEBF0FBECDBFED019A
:062640000895F894FFCF9D
:10264600FF0100F4015E05D205CC050C060806C89C
:1026560005C40504060006FC05F805C005BC05F41E
:1026660005F005B805B405E405E00536063006ECC8
:1026760005E8051C06180614061006DC05D8052C08
:10268600062806240620065406500642063C064C3A
:10269600064806FF0100640023071805A005FF0190
:1026A600000A00790D5E02CB0C6702AC02AA0C8709
:1026B60002B102FA0CBD02F902270D0203370353D9
:1026C6000D3F030000000000006F03740386039EA5
:1026D60003B5030203020303020302030302030317
:1026E6000203030202024572726F7220646574650A
:1026F6006374656420210D0A00070502000A0D08AF
:10270600060403010B0C0E0F110900004F4646008C
:102716005245414459004F564552564F4C54414735
:1027260045004F56455243555252454E54004F4E62
:1027360000CC01D001D601E201EE01303132333452
:102746003536373839616263646566004552524FE3
:1027560052000A417661696C61626C6520636F6D37
:102766006D616E64730D0A002D2D2D2D2D2D2D2DD1
:102776002D2D2D2D2D2D2D2D2D2D0D0A003A200020
:102786000D0A3E2000504455204649524D574152AD
:10279600452056312E302E30200D0A003E0073683B
:1027A6006F775F616C6C00203A2053686F77206109
:1027B6006C6C206368616E6E656C20706172616D11
:1027C60065746572732000203A20446973706C61E9
:1027D60079206C697374206F6620636F6D6D616E0E
:1027E60064732C20666F726D61743A2068656C7034
:1027F600007365745F6368616E6E656C00203A20D5
:10280600536574206368616E6E656C204E204F665A
:10281600662F4F6E2C20666F726D61743A20736559
:10282600745F6368616E6E656C204E20302F3120B8
:10283600284E203C20313029007365745F62756331
:102846006B00203A20536574206275636B204E201E
:102856004F66662F4F6E2C20666F726D61743A203C
:102866007365745F6275636B204E20302F312028AC
:102876004E203C203729007365745F616C6C002024
:102886003A205475726E204F66662F4F6E20616C2B
:102896006C206368616E6E656C2C20666F726D616C
:1028A600743A207365745F616C6C20302F31004F71
:1028B6004B0D0A00434D444C494E455F4241445F2F
:1028C600434D440D0A00434D444C494E455F544F19
:1028D6004F5F4D414E595F415247530D0A00434DDC
:1028E600444C494E455F544F4F5F4645575F4152F2
:1028F60047530D0A00434D444C494E455F494E56D9
:0C290600414C49445F4152470D0A00005B
:00000001FF
